{
  "_format": "hh-sol-artifact-1",
  "contractName": "EncryptedERC20",
  "sourceName": "contracts/EncryptedERC20.sol",
  "abi": [
    {
      "inputs": [
        {
          "internalType": "string",
          "name": "name_",
          "type": "string"
        },
        {
          "internalType": "string",
          "name": "symbol_",
          "type": "string"
        }
      ],
      "stateMutability": "nonpayable",
      "type": "constructor"
    },
    {
      "anonymous": false,
      "inputs": [
        {
          "indexed": true,
          "internalType": "address",
          "name": "owner",
          "type": "address"
        },
        {
          "indexed": true,
          "internalType": "address",
          "name": "spender",
          "type": "address"
        }
      ],
      "name": "Approval",
      "type": "event"
    },
    {
      "anonymous": false,
      "inputs": [
        {
          "indexed": true,
          "internalType": "address",
          "name": "to",
          "type": "address"
        },
        {
          "indexed": false,
          "internalType": "uint64",
          "name": "amount",
          "type": "uint64"
        }
      ],
      "name": "Mint",
      "type": "event"
    },
    {
      "anonymous": false,
      "inputs": [
        {
          "indexed": true,
          "internalType": "address",
          "name": "previousOwner",
          "type": "address"
        },
        {
          "indexed": true,
          "internalType": "address",
          "name": "newOwner",
          "type": "address"
        }
      ],
      "name": "OwnershipTransferStarted",
      "type": "event"
    },
    {
      "anonymous": false,
      "inputs": [
        {
          "indexed": true,
          "internalType": "address",
          "name": "previousOwner",
          "type": "address"
        },
        {
          "indexed": true,
          "internalType": "address",
          "name": "newOwner",
          "type": "address"
        }
      ],
      "name": "OwnershipTransferred",
      "type": "event"
    },
    {
      "anonymous": false,
      "inputs": [
        {
          "indexed": true,
          "internalType": "address",
          "name": "from",
          "type": "address"
        },
        {
          "indexed": true,
          "internalType": "address",
          "name": "to",
          "type": "address"
        }
      ],
      "name": "Transfer",
      "type": "event"
    },
    {
      "inputs": [],
      "name": "acceptOwnership",
      "outputs": [],
      "stateMutability": "nonpayable",
      "type": "function"
    },
    {
      "inputs": [
        {
          "internalType": "address",
          "name": "owner",
          "type": "address"
        },
        {
          "internalType": "address",
          "name": "spender",
          "type": "address"
        }
      ],
      "name": "allowance",
      "outputs": [
        {
          "internalType": "euint64",
          "name": "",
          "type": "uint256"
        }
      ],
      "stateMutability": "view",
      "type": "function"
    },
    {
      "inputs": [
        {
          "internalType": "address",
          "name": "spender",
          "type": "address"
        },
        {
          "internalType": "euint64",
          "name": "amount",
          "type": "uint256"
        }
      ],
      "name": "approve",
      "outputs": [
        {
          "internalType": "bool",
          "name": "",
          "type": "bool"
        }
      ],
      "stateMutability": "nonpayable",
      "type": "function"
    },
    {
      "inputs": [
        {
          "internalType": "address",
          "name": "spender",
          "type": "address"
        },
        {
          "internalType": "einput",
          "name": "encryptedAmount",
          "type": "bytes32"
        },
        {
          "internalType": "bytes",
          "name": "inputProof",
          "type": "bytes"
        }
      ],
      "name": "approve",
      "outputs": [
        {
          "internalType": "bool",
          "name": "",
          "type": "bool"
        }
      ],
      "stateMutability": "nonpayable",
      "type": "function"
    },
    {
      "inputs": [
        {
          "internalType": "address",
          "name": "wallet",
          "type": "address"
        }
      ],
      "name": "balanceOf",
      "outputs": [
        {
          "internalType": "euint64",
          "name": "",
          "type": "uint256"
        }
      ],
      "stateMutability": "view",
      "type": "function"
    },
    {
      "inputs": [],
      "name": "decimals",
      "outputs": [
        {
          "internalType": "uint8",
          "name": "",
          "type": "uint8"
        }
      ],
      "stateMutability": "view",
      "type": "function"
    },
    {
      "inputs": [
        {
          "internalType": "uint64",
          "name": "mintedAmount",
          "type": "uint64"
        }
      ],
      "name": "mint",
      "outputs": [],
      "stateMutability": "nonpayable",
      "type": "function"
    },
    {
      "inputs": [],
      "name": "name",
      "outputs": [
        {
          "internalType": "string",
          "name": "",
          "type": "string"
        }
      ],
      "stateMutability": "view",
      "type": "function"
    },
    {
      "inputs": [],
      "name": "owner",
      "outputs": [
        {
          "internalType": "address",
          "name": "",
          "type": "address"
        }
      ],
      "stateMutability": "view",
      "type": "function"
    },
    {
      "inputs": [],
      "name": "pendingOwner",
      "outputs": [
        {
          "internalType": "address",
          "name": "",
          "type": "address"
        }
      ],
      "stateMutability": "view",
      "type": "function"
    },
    {
      "inputs": [],
      "name": "renounceOwnership",
      "outputs": [],
      "stateMutability": "nonpayable",
      "type": "function"
    },
    {
      "inputs": [],
      "name": "symbol",
      "outputs": [
        {
          "internalType": "string",
          "name": "",
          "type": "string"
        }
      ],
      "stateMutability": "view",
      "type": "function"
    },
    {
      "inputs": [],
      "name": "totalSupply",
      "outputs": [
        {
          "internalType": "uint64",
          "name": "",
          "type": "uint64"
        }
      ],
      "stateMutability": "view",
      "type": "function"
    },
    {
      "inputs": [
        {
          "internalType": "address",
          "name": "to",
          "type": "address"
        },
        {
          "internalType": "einput",
          "name": "encryptedAmount",
          "type": "bytes32"
        },
        {
          "internalType": "bytes",
          "name": "inputProof",
          "type": "bytes"
        }
      ],
      "name": "transfer",
      "outputs": [
        {
          "internalType": "bool",
          "name": "",
          "type": "bool"
        }
      ],
      "stateMutability": "nonpayable",
      "type": "function"
    },
    {
      "inputs": [
        {
          "internalType": "address",
          "name": "to",
          "type": "address"
        },
        {
          "internalType": "euint64",
          "name": "amount",
          "type": "uint256"
        }
      ],
      "name": "transfer",
      "outputs": [
        {
          "internalType": "bool",
          "name": "",
          "type": "bool"
        }
      ],
      "stateMutability": "nonpayable",
      "type": "function"
    },
    {
      "inputs": [
        {
          "internalType": "address",
          "name": "from",
          "type": "address"
        },
        {
          "internalType": "address",
          "name": "to",
          "type": "address"
        },
        {
          "internalType": "euint64",
          "name": "amount",
          "type": "uint256"
        }
      ],
      "name": "transferFrom",
      "outputs": [
        {
          "internalType": "bool",
          "name": "",
          "type": "bool"
        }
      ],
      "stateMutability": "nonpayable",
      "type": "function"
    },
    {
      "inputs": [
        {
          "internalType": "address",
          "name": "from",
          "type": "address"
        },
        {
          "internalType": "address",
          "name": "to",
          "type": "address"
        },
        {
          "internalType": "einput",
          "name": "encryptedAmount",
          "type": "bytes32"
        },
        {
          "internalType": "bytes",
          "name": "inputProof",
          "type": "bytes"
        }
      ],
      "name": "transferFrom",
      "outputs": [
        {
          "internalType": "bool",
          "name": "",
          "type": "bool"
        }
      ],
      "stateMutability": "nonpayable",
      "type": "function"
    },
    {
      "inputs": [
        {
          "internalType": "address",
          "name": "newOwner",
          "type": "address"
        }
      ],
      "name": "transferOwnership",
      "outputs": [],
      "stateMutability": "nonpayable",
      "type": "function"
    }
  ],
  "bytecode": "0x60806040523462000031576200001f6200001862000170565b906200038b565b604051611722620004f5823961172290f35b5f80fd5b634e487b7160e01b5f52604160045260245ffd5b90601f01601f191681019081106001600160401b038211176200006b57604052565b62000035565b90620000886200008060405190565b928362000049565b565b6001600160401b0381116200006b57602090601f01601f19160190565b5f5b838110620000b95750505f910152565b8181015183820152602001620000a9565b90929192620000e3620000dd826200008a565b62000071565b9381855260208501908284011162000031576200008892620000a7565b9080601f83011215620000315781516200011d92602001620000ca565b90565b919091604081840312620000315780516001600160401b0381116200003157836200014d91830162000100565b60208201519093906001600160401b03811162000031576200011d920162000100565b6200019362001c1780380380620001878162000071565b92833981019062000120565b9091565b634e487b7160e01b5f52602260045260245ffd5b9060016002830492168015620001ce575b6020831014620001c857565b62000197565b91607f1691620001bc565b915f1960089290920291821b911b5b9181191691161790565b6200011d6200011d6200011d9290565b9190620002176200011d6200022093620001f2565b908354620001d9565b9055565b62000088915f9162000202565b8181106200023d575050565b806200024c5f60019362000224565b0162000231565b9190601f81116200026357505050565b6200027562000088935f5260205f2090565b906020601f84018190048301931062000299575b6020601f90910104019062000231565b909150819062000289565b90620002ae815190565b906001600160401b0382116200006b57620002d682620002cf8554620001ab565b8562000253565b602090601f831160011462000313576200022092915f918362000307575b50505f19600883021c1916906002021790565b015190505f80620002f4565b601f1983169162000327855f5260205f2090565b925f5b81811062000366575091600293918560019694106200034d575b50505002019055565b01515f196008601f8516021c191690555f808062000344565b919360206001819287870151815501950192016200032a565b906200008891620002a4565b90620003a86200008892620003a033620003b0565b60026200037f565b60036200037f565b506200008880336200043a565b916001600160a01b0360089290920291821b911b620001e8565b6200011d90620003ed906001600160a01b031682565b6001600160a01b031690565b6200011d90620003d7565b6200011d90620003f9565b9190620004246200011d620002209362000404565b908354620003bd565b62000088915f916200040f565b62000088906200044c5f60016200042d565b62000495565b6200011d90620003ed565b6200011d905462000452565b906001600160a01b0390620001e8565b906200048d6200011d620002209262000404565b825462000469565b620004a05f6200045d565b620004ac825f62000479565b90620004e4620004dd7f8be0079c531659141344cd1fd0a4f28419497f9722a3daafe3b4186f6b6457e09362000404565b9162000404565b91620004ef60405190565b5f90a356fe60806040526004361015610011575f80fd5b5f3560e01c806306fdde0314610130578063095ea7b31461012b57806318160ddd1461012657806323b872dd14610121578063313ce5671461011c57806370a0823114610117578063715018a61461011257806379ba50971461010d5780637b7e0a5a146101085780638da5cb5b1461010357806395d89b41146100fe5780639a094352146100f9578063a9059cbb146100f4578063b32c1001146100ef578063dd62ed3e146100ea578063e30c3978146100e5578063f2fde38b146100e05763fb9d09c80361013f5761060f565b6105c6565b6105ab565b61058f565b61054d565b610531565b610512565b6104a7565b610472565b610453565b6103c5565b6103a8565b610381565b610318565b6102d7565b610270565b610242565b6101b0565b5f91031261013f57565b5f80fd5b5f5b8381106101545750505f910152565b8181015183820152602001610145565b61018561018e60209361019893610179815190565b80835293849260200190565b95869101610143565b601f01601f191690565b0190565b60208082526101ad92910190610164565b90565b3461013f576101c0366004610135565b6101d76101cb610754565b6040519182918261019c565b0390f35b6001600160a01b031690565b6001600160a01b0381165b0361013f57565b90503590610206826101e7565b565b806101f2565b9050359061020682610208565b919060408382031261013f576101ad9061023581856101f9565b9360200161020e565b9052565b3461013f576101d761025e61025836600461021b565b9061078b565b60405191829182901515815260200190565b3461013f57610280366004610135565b6101d761028b61080f565b6040515b9182918267ffffffffffffffff909116815260200190565b909160608284031261013f576101ad6102c084846101f9565b936102ce81602086016101f9565b9360400161020e565b3461013f576101d761025e6102ed3660046102a7565b91610819565b6103006101ad6101ad9290565b60ff1690565b6101ad60066102f3565b6101ad610306565b3461013f57610328366004610135565b6101d7610333610310565b6040519182918260ff909116815260200190565b9060208282031261013f576101ad916101f9565b6101ad6101ad6101ad9290565b61023e9061035b565b6020810192916102069190610368565b3461013f576101d761039c610397366004610347565b610868565b60405191829182610371565b3461013f576103b8366004610135565b6103c06108ba565b604051005b3461013f576103d5366004610135565b6103c0610924565b909182601f8301121561013f5781359167ffffffffffffffff831161013f57602001926001830284011161013f57565b9160608383031261013f5761042282846101f9565b92610430836020830161020e565b92604082013567ffffffffffffffff811161013f5761044f92016103dd565b9091565b3461013f576101d761025e61046936600461040d565b929190916109ca565b3461013f57610482366004610135565b6101d761048d610a05565b604051918291826001600160a01b03909116815260200190565b3461013f576104b7366004610135565b6101d76101cb610a0e565b9060808282031261013f576104d781836101f9565b926104e582602085016101f9565b926104f3836040830161020e565b92606082013567ffffffffffffffff811161013f5761044f92016103dd565b3461013f576101d761025e6105283660046104c2565b93929092610a18565b3461013f576101d761025e61054736600461021b565b90610a35565b3461013f576101d761025e61056336600461040d565b92919091610a64565b919060408382031261013f576101ad9061058681856101f9565b936020016101f9565b3461013f576101d761039c6105a536600461056c565b90610a78565b3461013f576105bb366004610135565b6101d761048d610a82565b3461013f576103c06105d9366004610347565b610b1d565b67ffffffffffffffff81166101f2565b90503590610206826105de565b9060208282031261013f576101ad916105ee565b3461013f576103c06106223660046105fb565b610ca9565b634e487b7160e01b5f52602260045260245ffd5b906001600283049216801561065b575b602083101461065657565b610627565b91607f169161064b565b80545f9392916106816106778361063b565b8085529360200190565b91600181169081156106d0575060011461069a57505050565b6106ab91929394505f5260205f2090565b915f925b8184106106bc5750500190565b8054848401526020909301926001016106af565b92949550505060ff1916825215156020020190565b906101ad91610665565b634e487b7160e01b5f52604160045260245ffd5b90601f01601f1916810190811067ffffffffffffffff82111761072557604052565b6106ef565b906102066107449261073b60405190565b938480926106e5565b0383610703565b6101ad9061072a565b6101ad600261074b565b1561013f57565b6101ad906101db906001600160a01b031682565b6101ad90610765565b6101ad90610779565b9061079d61079882610cb2565b61075e565b33906107aa908383610ccd565b906107de6107d87ff37f546c25e850257cc0c94f92bec94a17e2f0e884ddda268a25d8144b70eb6a93610782565b91610782565b916107e860405190565b5f90a3600190565b6101ad9060a01c5b67ffffffffffffffff1690565b6101ad90546107f0565b6101ad6001610805565b61083c9261082961079882610cb2565b610834813384610d07565b929091610d5a565b600190565b9061084b90610782565b5f5260205260405f2090565b6101ad9081565b6101ad9054610857565b61087e6101ad916108765f90565b506004610841565b61085e565b61088b610e71565b6102066108a9565b6101db6101ad6101ad9290565b6101ad90610893565b6102066108b55f6108a0565b610ecb565b610206610883565b156108c957565b60405162461bcd60e51b815260206004820152602960248201527f4f776e61626c6532537465703a2063616c6c6572206973206e6f7420746865206044820152683732bb9037bbb732b960b91b6064820152608490fd5b0390fd5b610206336108b5610933610a82565b61094e6001600160a01b0384165b916001600160a01b031690565b146108c2565b9061020661096160405190565b9283610703565b67ffffffffffffffff811161072557602090601f01601f19160190565b90825f939282370152565b909291926109a56109a082610968565b610954565b9381855260208501908284011161013f5761020692610985565b6101ad913691610990565b916109e66109ec9461054793946109de5f90565b5094926109bf565b90610ee9565b50600190565b6101ad906101db565b6101ad90546109f2565b6101ad5f6109fb565b6101ad600361074b565b926109e66109ec956102ed9395610a2c5f90565b509594926109bf565b61083c91610a4561079882610cb2565b610a5d81610a5761087e336004610841565b90610f13565b9133610d5a565b916109e66109ec9461025893946109de5f90565b6101ad9190610f89565b6101ad60016109fb565b61020690610a98610e71565b610acd565b906001600160a01b03905b9181191691161790565b90610ac26101ad610ac992610782565b8254610a9d565b9055565b610ad8816001610ab2565b610ae0610a05565b90610b0e6107d87f38d16b8cac22d99fc7c124b9cd0de2d3fa1faef420bfe791d8c362d765e2270093610782565b91610b1860405190565b5f90a3565b61020690610a8c565b61020690610b32610e71565b610bd5565b905f1990610aa8565b90610b506101ad610ac99261035b565b8254610b37565b634e487b7160e01b5f52601160045260245ffd5b67ffffffffffffffff9081169116019067ffffffffffffffff8211610b8c57565b610b57565b9067ffffffffffffffff60a01b9060a01b610aa8565b6107f86101ad6101ad9267ffffffffffffffff1690565b90610bce6101ad610ac992610ba7565b8254610b91565b610c0a610bf8610bf161087e6004610beb610a05565b90610841565b8390610fbf565b610c056004610beb610a05565b610b40565b610c2c610c1d61087e6004610beb610a05565b610c2630610782565b9061100d565b610c47610c3f61087e6004610beb610a05565b610c26610a05565b610c65610c5e610c576001610805565b8390610b6b565b6001610bbe565b610c6d610a05565b610ca4610c9a7f9109de113672aaca72ede8bc906f7aafabee865311ac020fb15c71edf94a0a0192610782565b9261028f60405190565b0390a2565b61020690610b26565b610cc66101ad91610cc05f90565b5061035b565b3390611053565b91610d0261020693610cef83610c05610ce860058590610841565b8790610841565b610cfc83610c2630610782565b8261100d565b61100d565b916101ad9190610d54610d1a8386610f89565b91610d3f610d288483610f13565b610d3a83610a5761087e8b6004610841565b6110fc565b959392610d4d879282611117565b9091611183565b91610ccd565b91610d7f610dd091610df3939590610d79610d745f61035b565b6111a8565b91611183565b610dbd610d9a610d9361087e886004610841565b83906111c5565b610da981610c05896004610841565b610db681610c2630610782565b869061100d565b610dcb61087e856004610841565b611117565b610ddf81610c05856004610841565b610dec81610c2630610782565b829061100d565b90610b0e6107d87f4853ae1b4d437c4255ac16cd3ceda3465975023f27cb141584cd9d44440fed8293610782565b15610e2857565b60405162461bcd60e51b815280610920600482016020808252818101527f4f776e61626c653a2063616c6c6572206973206e6f7420746865206f776e6572604082015260600190565b610206610e7c610a05565b610e88610941336101db565b14610e21565b916001600160a01b0360089290920291821b911b610aa8565b9190610eb86101ad610ac993610782565b908354610e8e565b610206915f91610ea7565b61020690610eda5f6001610ec0565b611231565b6101ad60056102f3565b6101ad91610eff610f0e92610efb5f90565b5090565b90610f08610edf565b91611303565b61035b565b6101ad91610f0e91610f2b610f2782611418565b1590565b610f77575b610f3c610f2783611418565b610f5a575b610f4d610f539161035b565b9161035b565b5f91611472565b9050610f53610f4d610f6e610d745f61035b565b92915050610f41565b50610f84610d745f61035b565b610f30565b6101ad91610fa361087e92610f9b5f90565b506005610841565b610841565b6101ad6101ad6101ad9267ffffffffffffffff1690565b6101ad91610f0e91610fd3610f2782611418565b610ff2575b610fe4610fea9161035b565b91610fa8565b600191611513565b50610fea610fe4611005610d745f61035b565b915050610fd8565b9061101a6102069261035b565b61156f565b8015156101f2565b905051906102068261101f565b9060208282031261013f576101ad91611027565b6040513d5f823e3d90fd5b9060209061107a611075732fb4341027eb1d2ad8b5d9708187df8633cafa9281565b610782565b61109e635faa299a9492946110ba61109160405190565b9687958694859460e01b90565b845260048401526001600160a01b031660248301526044820190565b03915afa9081156110f7575f916110cf575090565b6101ad915060203d81116110f0575b6110e88183610703565b810190611034565b503d6110de565b611048565b6101ad91611111610f4d610f0e93610cc05f90565b906115ad565b6101ad91610f0e9161112b610f2782611418565b611171575b61113c610f2783611418565b611154575b610f4d61114d9161035b565b5f916115f2565b905061114d610f4d611168610d745f61035b565b92915050611141565b5061117e610d745f61035b565b611130565b906101ad926111a2610f4d61119c610f0e95610cc05f90565b9361035b565b9161166d565b610f0e6101ad916111b65f90565b506111bf610edf565b906116c8565b6101ad91610f0e916111d9610f2782611418565b61121f575b6111ea610f2783611418565b611202575b610f4d6111fb9161035b565b5f91611513565b90506111fb610f4d611216610d745f61035b565b929150506111ef565b5061122c610d745f61035b565b6111de565b61123a5f6109fb565b611244825f610ab2565b90610b0e6107d87f8be0079c531659141344cd1fd0a4f28419497f9722a3daafe3b4186f6b6457e093610782565b6112886112826101ad9260ff1690565b60f81b90565b6001600160f81b03191690565b9050519061020682610208565b9060208282031261013f576101ad91611295565b949391606091610206946112e56112f2936112d560808b01945f8c0152565b6001600160a01b031660208a0152565b8782036040890152610164565b9401906001600160f81b0319169052565b90916020916113575f61132a6110757305fd9b5efe0a996095f42ed7e77c390810cf660c81565b92611362632e817ff09195611340339991611272565b9061134a60405190565b998a988997889660e01b90565b8652600486016112b6565b03925af19081156110f7575f916113ea575b5090611394611075732fb4341027eb1d2ad8b5d9708187df8633cafa9281565b638d9c9c92833392803b1561013f5761109e5f80946113c26113b560405190565b9788968795869460e01b90565b03925af180156110f7576113d35750565b610206905f6113e28183610703565b810190610135565b61140b915060203d8111611411575b6114038183610703565b8101906112a2565b5f611374565b503d6113f9565b611422905f610cc0565b61143261142e5f61035b565b9190565b141590565b6112886112826101ad9290565b908152606081019392610206929091604091611462905b6020830152565b01906001600160f81b0319169052565b916020919015611504576114866001611437565b925b6114cc5f6114aa6110757305fd9b5efe0a996095f42ed7e77c390810cf660c81565b926114d763694daf729195976114bf60405190565b9889978896879560e01b90565b855260048501611444565b03925af19081156110f7575f916114ec575090565b6101ad915060203d8111611411576114038183610703565b61150d5f611437565b92611488565b916020919015611560576115276001611437565b925b6114cc5f61154b6110757305fd9b5efe0a996095f42ed7e77c390810cf660c81565b926114d763f953e4279195976114bf60405190565b6115695f611437565b92611529565b61158d611075732fb4341027eb1d2ad8b5d9708187df8633cafa9281565b6365d0509c9190803b1561013f5761109e5f80946113c26113b560405190565b906020906115ba5f611437565b926114cc5f6115dd6110757305fd9b5efe0a996095f42ed7e77c390810cf660c81565b926114d763666a35889195976114bf60405190565b91602091901561163f576116066001611437565b925b6114cc5f61162a6110757305fd9b5efe0a996095f42ed7e77c390810cf660c81565b926114d7638c14cc219195976114bf60405190565b6116485f611437565b92611608565b9081526060810193926102069290916040916116699061145b565b0152565b602091906116a85f6116936110757305fd9b5efe0a996095f42ed7e77c390810cf660c81565b926114d763cb3b94079195976114bf60405190565b85526004850161164e565b90815260408101929161020691602090611462565b906020906116ea6110757305fd9b5efe0a996095f42ed7e77c390810cf660c81565b61170a5f6116fd63e71746b89694611272565b956114d76113b560405190565b8452600484016116b356fea164736f6c6343000818000a",
  "linkReferences": {},
  "deployedLinkReferences": {}
}