{
  "_format": "hh-sol-artifact-1",
  "contractName": "CTokenVestingPlans",
  "sourceName": "contracts/ConfidentialVesting/Cvestingplan.sol",
  "abi": [
    {
      "inputs": [
        {
          "internalType": "string",
          "name": "name",
          "type": "string"
        },
        {
          "internalType": "string",
          "name": "symbol",
          "type": "string"
        }
      ],
      "stateMutability": "nonpayable",
      "type": "constructor"
    },
    {
      "anonymous": false,
      "inputs": [
        {
          "indexed": true,
          "internalType": "address",
          "name": "owner",
          "type": "address"
        },
        {
          "indexed": true,
          "internalType": "address",
          "name": "approved",
          "type": "address"
        },
        {
          "indexed": true,
          "internalType": "uint256",
          "name": "tokenId",
          "type": "uint256"
        }
      ],
      "name": "Approval",
      "type": "event"
    },
    {
      "anonymous": false,
      "inputs": [
        {
          "indexed": true,
          "internalType": "address",
          "name": "owner",
          "type": "address"
        },
        {
          "indexed": true,
          "internalType": "address",
          "name": "operator",
          "type": "address"
        },
        {
          "indexed": false,
          "internalType": "bool",
          "name": "approved",
          "type": "bool"
        }
      ],
      "name": "ApprovalForAll",
      "type": "event"
    },
    {
      "anonymous": false,
      "inputs": [
        {
          "indexed": false,
          "internalType": "address",
          "name": "owner",
          "type": "address"
        },
        {
          "indexed": false,
          "internalType": "address",
          "name": "operator",
          "type": "address"
        },
        {
          "indexed": false,
          "internalType": "bool",
          "name": "approved",
          "type": "bool"
        }
      ],
      "name": "ApprovalForAllDelegation",
      "type": "event"
    },
    {
      "anonymous": false,
      "inputs": [
        {
          "indexed": true,
          "internalType": "uint256",
          "name": "tokenId",
          "type": "uint256"
        },
        {
          "indexed": true,
          "internalType": "address",
          "name": "delegate",
          "type": "address"
        }
      ],
      "name": "DelegateRemoved",
      "type": "event"
    },
    {
      "anonymous": false,
      "inputs": [
        {
          "indexed": true,
          "internalType": "uint256",
          "name": "id",
          "type": "uint256"
        },
        {
          "indexed": false,
          "internalType": "address",
          "name": "owner",
          "type": "address"
        },
        {
          "indexed": false,
          "internalType": "address",
          "name": "delegator",
          "type": "address"
        }
      ],
      "name": "DelegatorApproved",
      "type": "event"
    },
    {
      "anonymous": false,
      "inputs": [
        {
          "indexed": true,
          "internalType": "uint256",
          "name": "id",
          "type": "uint256"
        },
        {
          "indexed": true,
          "internalType": "address",
          "name": "recipient",
          "type": "address"
        },
        {
          "indexed": true,
          "internalType": "address",
          "name": "token",
          "type": "address"
        },
        {
          "indexed": false,
          "internalType": "euint64",
          "name": "amount",
          "type": "uint256"
        },
        {
          "indexed": false,
          "internalType": "euint64",
          "name": "start",
          "type": "uint256"
        },
        {
          "indexed": false,
          "internalType": "euint64",
          "name": "cliff",
          "type": "uint256"
        },
        {
          "indexed": false,
          "internalType": "uint256",
          "name": "end",
          "type": "uint256"
        },
        {
          "indexed": false,
          "internalType": "uint256",
          "name": "rate",
          "type": "uint256"
        },
        {
          "indexed": false,
          "internalType": "uint256",
          "name": "period",
          "type": "uint256"
        }
      ],
      "name": "PlanCreated",
      "type": "event"
    },
    {
      "anonymous": false,
      "inputs": [
        {
          "indexed": true,
          "internalType": "uint256",
          "name": "tokenId",
          "type": "uint256"
        },
        {
          "indexed": true,
          "internalType": "address",
          "name": "delegate",
          "type": "address"
        }
      ],
      "name": "TokenDelegated",
      "type": "event"
    },
    {
      "anonymous": false,
      "inputs": [
        {
          "indexed": true,
          "internalType": "address",
          "name": "from",
          "type": "address"
        },
        {
          "indexed": true,
          "internalType": "address",
          "name": "to",
          "type": "address"
        },
        {
          "indexed": true,
          "internalType": "uint256",
          "name": "tokenId",
          "type": "uint256"
        }
      ],
      "name": "Transfer",
      "type": "event"
    },
    {
      "anonymous": false,
      "inputs": [
        {
          "indexed": false,
          "internalType": "address",
          "name": "_admin",
          "type": "address"
        }
      ],
      "name": "URIAdminDeleted",
      "type": "event"
    },
    {
      "anonymous": false,
      "inputs": [
        {
          "indexed": false,
          "internalType": "string",
          "name": "newURI",
          "type": "string"
        }
      ],
      "name": "URISet",
      "type": "event"
    },
    {
      "inputs": [],
      "name": "_planIds",
      "outputs": [
        {
          "internalType": "uint256",
          "name": "_value",
          "type": "uint256"
        }
      ],
      "stateMutability": "view",
      "type": "function"
    },
    {
      "inputs": [
        {
          "internalType": "address",
          "name": "to",
          "type": "address"
        },
        {
          "internalType": "uint256",
          "name": "tokenId",
          "type": "uint256"
        }
      ],
      "name": "approve",
      "outputs": [],
      "stateMutability": "nonpayable",
      "type": "function"
    },
    {
      "inputs": [
        {
          "internalType": "address",
          "name": "delegator",
          "type": "address"
        },
        {
          "internalType": "uint256",
          "name": "planId",
          "type": "uint256"
        }
      ],
      "name": "approveDelegator",
      "outputs": [],
      "stateMutability": "nonpayable",
      "type": "function"
    },
    {
      "inputs": [
        {
          "internalType": "address",
          "name": "spender",
          "type": "address"
        },
        {
          "internalType": "uint256",
          "name": "planId",
          "type": "uint256"
        }
      ],
      "name": "approveSpenderDelegator",
      "outputs": [],
      "stateMutability": "nonpayable",
      "type": "function"
    },
    {
      "inputs": [
        {
          "internalType": "address",
          "name": "owner",
          "type": "address"
        }
      ],
      "name": "balanceOf",
      "outputs": [
        {
          "internalType": "uint256",
          "name": "",
          "type": "uint256"
        }
      ],
      "stateMutability": "view",
      "type": "function"
    },
    {
      "inputs": [
        {
          "internalType": "address",
          "name": "delegate",
          "type": "address"
        }
      ],
      "name": "balanceOfDelegate",
      "outputs": [
        {
          "internalType": "uint256",
          "name": "",
          "type": "uint256"
        }
      ],
      "stateMutability": "view",
      "type": "function"
    },
    {
      "inputs": [],
      "name": "baseURI",
      "outputs": [
        {
          "internalType": "string",
          "name": "",
          "type": "string"
        }
      ],
      "stateMutability": "view",
      "type": "function"
    },
    {
      "inputs": [
        {
          "internalType": "address",
          "name": "recipient",
          "type": "address"
        },
        {
          "internalType": "address",
          "name": "token",
          "type": "address"
        },
        {
          "internalType": "einput",
          "name": "amount",
          "type": "bytes32"
        },
        {
          "internalType": "einput",
          "name": "start",
          "type": "bytes32"
        },
        {
          "internalType": "einput",
          "name": "cliff",
          "type": "bytes32"
        },
        {
          "internalType": "uint256",
          "name": "rate",
          "type": "uint256"
        },
        {
          "internalType": "uint256",
          "name": "period",
          "type": "uint256"
        },
        {
          "internalType": "bytes",
          "name": "inputProof",
          "type": "bytes"
        }
      ],
      "name": "createPlan",
      "outputs": [
        {
          "internalType": "uint256",
          "name": "newPlanId",
          "type": "uint256"
        }
      ],
      "stateMutability": "nonpayable",
      "type": "function"
    },
    {
      "inputs": [
        {
          "internalType": "uint256",
          "name": "planId",
          "type": "uint256"
        },
        {
          "internalType": "address",
          "name": "delegatee",
          "type": "address"
        }
      ],
      "name": "delegate",
      "outputs": [],
      "stateMutability": "nonpayable",
      "type": "function"
    },
    {
      "inputs": [
        {
          "internalType": "address",
          "name": "token",
          "type": "address"
        },
        {
          "internalType": "address",
          "name": "delegatee",
          "type": "address"
        }
      ],
      "name": "delegateAll",
      "outputs": [],
      "stateMutability": "nonpayable",
      "type": "function"
    },
    {
      "inputs": [
        {
          "internalType": "uint256[]",
          "name": "planIds",
          "type": "uint256[]"
        },
        {
          "internalType": "address[]",
          "name": "delegatees",
          "type": "address[]"
        }
      ],
      "name": "delegatePlans",
      "outputs": [],
      "stateMutability": "nonpayable",
      "type": "function"
    },
    {
      "inputs": [
        {
          "internalType": "address",
          "name": "delegatee",
          "type": "address"
        },
        {
          "internalType": "address",
          "name": "token",
          "type": "address"
        }
      ],
      "name": "delegatedBalances",
      "outputs": [
        {
          "internalType": "euint64",
          "name": "delegatedBalance",
          "type": "uint256"
        }
      ],
      "stateMutability": "nonpayable",
      "type": "function"
    },
    {
      "inputs": [
        {
          "internalType": "uint256",
          "name": "tokenId",
          "type": "uint256"
        }
      ],
      "name": "delegatedTo",
      "outputs": [
        {
          "internalType": "address",
          "name": "",
          "type": "address"
        }
      ],
      "stateMutability": "view",
      "type": "function"
    },
    {
      "inputs": [],
      "name": "deleteAdmin",
      "outputs": [],
      "stateMutability": "nonpayable",
      "type": "function"
    },
    {
      "inputs": [
        {
          "internalType": "uint256",
          "name": "tokenId",
          "type": "uint256"
        }
      ],
      "name": "getApproved",
      "outputs": [
        {
          "internalType": "address",
          "name": "",
          "type": "address"
        }
      ],
      "stateMutability": "view",
      "type": "function"
    },
    {
      "inputs": [
        {
          "internalType": "uint256",
          "name": "planId",
          "type": "uint256"
        }
      ],
      "name": "getApprovedDelegator",
      "outputs": [
        {
          "internalType": "address",
          "name": "",
          "type": "address"
        }
      ],
      "stateMutability": "view",
      "type": "function"
    },
    {
      "inputs": [
        {
          "internalType": "address",
          "name": "owner",
          "type": "address"
        },
        {
          "internalType": "address",
          "name": "operator",
          "type": "address"
        }
      ],
      "name": "isApprovedForAll",
      "outputs": [
        {
          "internalType": "bool",
          "name": "",
          "type": "bool"
        }
      ],
      "stateMutability": "view",
      "type": "function"
    },
    {
      "inputs": [
        {
          "internalType": "address",
          "name": "owner",
          "type": "address"
        },
        {
          "internalType": "address",
          "name": "operator",
          "type": "address"
        }
      ],
      "name": "isApprovedForAllDelegation",
      "outputs": [
        {
          "internalType": "bool",
          "name": "",
          "type": "bool"
        }
      ],
      "stateMutability": "view",
      "type": "function"
    },
    {
      "inputs": [
        {
          "internalType": "address",
          "name": "holder",
          "type": "address"
        },
        {
          "internalType": "address",
          "name": "token",
          "type": "address"
        }
      ],
      "name": "lockedBalances",
      "outputs": [
        {
          "internalType": "euint64",
          "name": "lockedBalance",
          "type": "uint256"
        }
      ],
      "stateMutability": "nonpayable",
      "type": "function"
    },
    {
      "inputs": [],
      "name": "name",
      "outputs": [
        {
          "internalType": "string",
          "name": "",
          "type": "string"
        }
      ],
      "stateMutability": "view",
      "type": "function"
    },
    {
      "inputs": [
        {
          "internalType": "uint256",
          "name": "tokenId",
          "type": "uint256"
        }
      ],
      "name": "ownerOf",
      "outputs": [
        {
          "internalType": "address",
          "name": "",
          "type": "address"
        }
      ],
      "stateMutability": "view",
      "type": "function"
    },
    {
      "inputs": [
        {
          "internalType": "uint256",
          "name": "planId",
          "type": "uint256"
        },
        {
          "internalType": "uint256",
          "name": "timeStamp",
          "type": "uint256"
        },
        {
          "internalType": "uint256",
          "name": "redemptionTime",
          "type": "uint256"
        }
      ],
      "name": "planBalanceOf",
      "outputs": [
        {
          "internalType": "euint64",
          "name": "balance",
          "type": "uint256"
        },
        {
          "internalType": "euint64",
          "name": "remainder",
          "type": "uint256"
        },
        {
          "internalType": "euint64",
          "name": "latestUnlock",
          "type": "uint256"
        }
      ],
      "stateMutability": "nonpayable",
      "type": "function"
    },
    {
      "inputs": [
        {
          "internalType": "uint256",
          "name": "planId",
          "type": "uint256"
        }
      ],
      "name": "planEnd",
      "outputs": [
        {
          "internalType": "euint64",
          "name": "end",
          "type": "uint256"
        }
      ],
      "stateMutability": "nonpayable",
      "type": "function"
    },
    {
      "inputs": [
        {
          "internalType": "uint256",
          "name": "",
          "type": "uint256"
        }
      ],
      "name": "plans",
      "outputs": [
        {
          "internalType": "address",
          "name": "token",
          "type": "address"
        },
        {
          "internalType": "euint64",
          "name": "amount",
          "type": "uint256"
        },
        {
          "internalType": "euint64",
          "name": "start",
          "type": "uint256"
        },
        {
          "internalType": "euint64",
          "name": "cliff",
          "type": "uint256"
        },
        {
          "internalType": "uint256",
          "name": "rate",
          "type": "uint256"
        },
        {
          "internalType": "uint256",
          "name": "period",
          "type": "uint256"
        }
      ],
      "stateMutability": "view",
      "type": "function"
    },
    {
      "inputs": [],
      "name": "redeemAllPlans",
      "outputs": [],
      "stateMutability": "nonpayable",
      "type": "function"
    },
    {
      "inputs": [
        {
          "internalType": "uint256",
          "name": "planId",
          "type": "uint256"
        }
      ],
      "name": "redeemPlan",
      "outputs": [],
      "stateMutability": "nonpayable",
      "type": "function"
    },
    {
      "inputs": [
        {
          "internalType": "address",
          "name": "from",
          "type": "address"
        },
        {
          "internalType": "address",
          "name": "to",
          "type": "address"
        },
        {
          "internalType": "uint256",
          "name": "tokenId",
          "type": "uint256"
        }
      ],
      "name": "safeTransferFrom",
      "outputs": [],
      "stateMutability": "nonpayable",
      "type": "function"
    },
    {
      "inputs": [
        {
          "internalType": "address",
          "name": "from",
          "type": "address"
        },
        {
          "internalType": "address",
          "name": "to",
          "type": "address"
        },
        {
          "internalType": "uint256",
          "name": "tokenId",
          "type": "uint256"
        },
        {
          "internalType": "bytes",
          "name": "data",
          "type": "bytes"
        }
      ],
      "name": "safeTransferFrom",
      "outputs": [],
      "stateMutability": "nonpayable",
      "type": "function"
    },
    {
      "inputs": [
        {
          "internalType": "address",
          "name": "operator",
          "type": "address"
        },
        {
          "internalType": "bool",
          "name": "approved",
          "type": "bool"
        }
      ],
      "name": "setApprovalForAll",
      "outputs": [],
      "stateMutability": "nonpayable",
      "type": "function"
    },
    {
      "inputs": [
        {
          "internalType": "address",
          "name": "operator",
          "type": "address"
        },
        {
          "internalType": "bool",
          "name": "approved",
          "type": "bool"
        }
      ],
      "name": "setApprovalForAllDelegation",
      "outputs": [],
      "stateMutability": "nonpayable",
      "type": "function"
    },
    {
      "inputs": [
        {
          "internalType": "address",
          "name": "operator",
          "type": "address"
        },
        {
          "internalType": "bool",
          "name": "approved",
          "type": "bool"
        }
      ],
      "name": "setApprovalForOperator",
      "outputs": [],
      "stateMutability": "nonpayable",
      "type": "function"
    },
    {
      "inputs": [
        {
          "internalType": "bytes4",
          "name": "interfaceId",
          "type": "bytes4"
        }
      ],
      "name": "supportsInterface",
      "outputs": [
        {
          "internalType": "bool",
          "name": "",
          "type": "bool"
        }
      ],
      "stateMutability": "view",
      "type": "function"
    },
    {
      "inputs": [],
      "name": "symbol",
      "outputs": [
        {
          "internalType": "string",
          "name": "",
          "type": "string"
        }
      ],
      "stateMutability": "view",
      "type": "function"
    },
    {
      "inputs": [
        {
          "internalType": "uint256",
          "name": "index",
          "type": "uint256"
        }
      ],
      "name": "tokenByIndex",
      "outputs": [
        {
          "internalType": "uint256",
          "name": "",
          "type": "uint256"
        }
      ],
      "stateMutability": "view",
      "type": "function"
    },
    {
      "inputs": [
        {
          "internalType": "address",
          "name": "delegate",
          "type": "address"
        },
        {
          "internalType": "uint256",
          "name": "index",
          "type": "uint256"
        }
      ],
      "name": "tokenOfDelegateByIndex",
      "outputs": [
        {
          "internalType": "uint256",
          "name": "",
          "type": "uint256"
        }
      ],
      "stateMutability": "view",
      "type": "function"
    },
    {
      "inputs": [
        {
          "internalType": "address",
          "name": "owner",
          "type": "address"
        },
        {
          "internalType": "uint256",
          "name": "index",
          "type": "uint256"
        }
      ],
      "name": "tokenOfOwnerByIndex",
      "outputs": [
        {
          "internalType": "uint256",
          "name": "",
          "type": "uint256"
        }
      ],
      "stateMutability": "view",
      "type": "function"
    },
    {
      "inputs": [
        {
          "internalType": "uint256",
          "name": "tokenId",
          "type": "uint256"
        }
      ],
      "name": "tokenURI",
      "outputs": [
        {
          "internalType": "string",
          "name": "",
          "type": "string"
        }
      ],
      "stateMutability": "view",
      "type": "function"
    },
    {
      "inputs": [],
      "name": "totalSupply",
      "outputs": [
        {
          "internalType": "uint256",
          "name": "",
          "type": "uint256"
        }
      ],
      "stateMutability": "view",
      "type": "function"
    },
    {
      "inputs": [
        {
          "internalType": "address",
          "name": "from",
          "type": "address"
        },
        {
          "internalType": "address",
          "name": "to",
          "type": "address"
        },
        {
          "internalType": "uint256",
          "name": "tokenId",
          "type": "uint256"
        }
      ],
      "name": "transferFrom",
      "outputs": [],
      "stateMutability": "nonpayable",
      "type": "function"
    },
    {
      "inputs": [
        {
          "internalType": "string",
          "name": "_uri",
          "type": "string"
        }
      ],
      "name": "updateBaseURI",
      "outputs": [],
      "stateMutability": "nonpayable",
      "type": "function"
    }
  ],
  "bytecode": "0x60806040523462000031576200001f6200001862000170565b9062000208565b6040516142bd6200049a82396142bd90f35b5f80fd5b634e487b7160e01b5f52604160045260245ffd5b90601f01601f191681019081106001600160401b038211176200006b57604052565b62000035565b90620000886200008060405190565b928362000049565b565b6001600160401b0381116200006b57602090601f01601f19160190565b5f5b838110620000b95750505f910152565b8181015183820152602001620000a9565b90929192620000e3620000dd826200008a565b62000071565b9381855260208501908284011162000031576200008892620000a7565b9080601f83011215620000315781516200011d92602001620000ca565b90565b919091604081840312620000315780516001600160401b0381116200003157836200014d91830162000100565b60208201519093906001600160401b03811162000031576200011d920162000100565b620001936200475780380380620001878162000071565b92833981019062000120565b9091565b90610100600160a81b039060081b5b9181191691161790565b6200011d90620001c6906001600160a01b031682565b6001600160a01b031690565b6200011d90620001b0565b6200011d90620001d2565b90620001fc6200011d6200020492620001dd565b825462000197565b9055565b90620002149162000221565b62000088336013620001e8565b9062000088916200026f565b6200011d6200011d6200011d9290565b6200011d60016200022d565b905f1990620001a6565b90620002676200011d62000204926200022d565b825462000249565b906200027b9162000291565b62000088620002896200023d565b601162000253565b620000889182918291829182919062000480565b634e487b7160e01b5f52602260045260245ffd5b9060016002830492168015620002dc575b6020831014620002d657565b620002a5565b91607f1691620002ca565b915f1960089290920291821b911b620001a6565b9190620003106200011d62000204936200022d565b908354620002e7565b62000088915f91620002fb565b81811062000332575050565b80620003415f60019362000319565b0162000326565b9190601f81116200035857505050565b6200036a62000088935f5260205f2090565b906020601f8401819004830193106200038e575b6020601f90910104019062000326565b90915081906200037e565b90620003a3815190565b906001600160401b0382116200006b57620003cb82620003c48554620002b9565b8562000348565b602090601f831160011462000408576200020492915f9183620003fc575b50505f19600883021c1916906002021790565b015190505f80620003e9565b601f198316916200041c855f5260205f2090565b925f5b8181106200045b5750916002939185600196941062000442575b50505002019055565b01515f196008601f8516021c191690555f808062000439565b919360206001819287870151815501950192016200041f565b90620000889162000399565b906200049162000088925f62000474565b60016200047456fe60806040526004361015610011575f80fd5b5f3560e01c806301ffc9a71461029057806306fdde031461028b578063081812fc1461028657806308bbb82414610281578063095ea7b31461027c57806314f864cd1461027757806316c099671461027257806318160ddd1461026d5780631f25ccb61461026857806323b872dd146102635780632f745c591461025e578063402d5a771461025957806342842e0e146102545780634c6839cc1461024f5780634f6ccce71461024a57806352e5b7e4146102455780636352211e146102405780636b8e3d731461023b5780636bb3c73f146102365780636c0360eb146102315780636ddd2cfd1461022c57806370a08231146102275780637b4e51f61461022257806388cccd801461021d578063931688cb1461021857806395d89b4114610213578063a22cb4651461020e578063a414159614610209578063a8973e2b14610204578063b1620616146101ff578063b6f97787146101fa578063b88d4fde146101f5578063b9bdac2c146101f0578063c3ca5755146101eb578063c7711c4c146101e6578063c7d74fa7146101e1578063c87b56dd146101dc578063dc1fa568146101d7578063e6e5e4d2146101d25763e985e9c5036102a857610df6565b610ddb565b610db5565b610d9a565b610d6f565b610d00565b610ce5565b610ccd565b610cb1565b610c46565b610c12565b610b17565b610a87565b610a6e565b610a53565b610a3b565b610978565b61095f565b61090c565b6108f4565b6108d9565b610768565b61074c565b610731565b610709565b6106c8565b6106ad565b610680565b610665565b610649565b610630565b6105e7565b6105b1565b610598565b610563565b61048d565b61044c565b6103d7565b61037c565b6102d6565b6001600160e01b031981165b036102a857565b5f80fd5b905035906102b982610295565b565b906020828203126102a8576102cf916102ac565b90565b9052565b346102a8576103046102f16102ec3660046102bb565b610e12565b6040515b91829182901515815260200190565b0390f35b5f9103126102a857565b5f5b8381106103235750505f910152565b8181015183820152602001610314565b61035461035d60209361036793610348815190565b80835293849260200190565b95869101610312565b601f01601f191690565b0190565b60208082526102cf92910190610333565b346102a85761038c366004610308565b610304610397610e4c565b6040515b9182918261036b565b806102a1565b905035906102b9826103a4565b906020828203126102a8576102cf916103aa565b6001600160a01b031690565b346102a8576103046103f26103ed3660046103b7565b610e55565b6040515b918291826001600160a01b03909116815260200190565b6001600160a01b0381166102a1565b905035906102b98261040d565b91906040838203126102a8576102cf9061044381856103aa565b9360200161041c565b346102a85761046561045f366004610429565b90610e81565b604051005b91906040838203126102a8576102cf90610484818561041c565b936020016103aa565b346102a8576104656104a036600461046a565b90610f56565b909182601f830112156102a8578135916001600160401b0383116102a85760200192600183028401116102a857565b919091610100818403126102a8576104ed838261041c565b926104fb816020840161041c565b9261050982604085016103aa565b9261051783606083016103aa565b9261052581608084016103aa565b926105338260a085016103aa565b926105418360c083016103aa565b9260e08201356001600160401b0381116102a85761055f92016104a6565b9091565b346102a8576103046105886105793660046104d5565b97969096959195949294611136565b6040519182918290815260200190565b346102a8576104656105ab36600461046a565b90611389565b346102a8576105c1366004610308565b61030461058860085490565b91906040838203126102a8576102cf90610443818561041c565b346102a8576104656105fa3660046105cd565b906113e7565b90916060828403126102a8576102cf610619848461041c565b93610627816020860161041c565b936040016103aa565b346102a857610465610643366004610600565b916114cc565b346102a85761030461058861065f36600461046a565b90611557565b346102a8576103046103f261067b3660046103b7565b611594565b346102a857610465610693366004610600565b916115d6565b906020828203126102a8576102cf9161041c565b346102a8576103046105886106c3366004610699565b61163a565b346102a8576103046105886106de3660046103b7565b61171a565b6102cf6102cf6102cf9290565b6102d2906106e3565b6020810192916102b991906106f0565b346102a85761030461072561071f3660046105cd565b906117ea565b604051918291826106f9565b346102a8576103046103f26107473660046103b7565b6118bc565b346102a8576103046107256107623660046105cd565b906118e2565b346102a8576103046103f261077e3660046103b7565b61196f565b634e487b7160e01b5f525f60045260245ffd5b634e487b7160e01b5f52602260045260245ffd5b90600160028304921680156107ca575b60208310146107c557565b610796565b91607f16916107ba565b80545f9392916107f06107e6836107aa565b8085529360200190565b916001811690811561083f575060011461080957505050565b61081a91929394505f5260205f2090565b915f925b81841061082b5750500190565b80548484015260209093019260010161081e565b92949550505060ff1916825215156020020190565b906102cf916107d4565b634e487b7160e01b5f52604160045260245ffd5b90601f01601f191681019081106001600160401b0382111761089357604052565b61085e565b906102b96108b2926108a960405190565b93848092610854565b0383610872565b905f106108c9576102cf90610898565b610783565b6102cf5f60126108b9565b346102a8576108e9366004610308565b6103046103976108ce565b346102a8576104656109073660046103b7565b611985565b346102a857610304610588610922366004610699565b6119fb565b8015156102a1565b905035906102b982610927565b91906040838203126102a8576102cf90610956818561041c565b9360200161092f565b346102a85761046561097236600461093c565b90611a2b565b346102a85761046561098b36600461093c565b90611a41565b906102b961099e60405190565b9283610872565b6001600160401b03811161089357602090601f01601f19160190565b90825f939282370152565b909291926109e16109dc826109a5565b610991565b938185526020850190828401116102a8576102b9926109c1565b9080601f830112156102a8578160206102cf933591016109cc565b906020828203126102a85781356001600160401b0381116102a8576102cf92016109fb565b346102a857610465610a4e366004610a16565b611c2d565b346102a857610a63366004610308565b610304610397611c91565b346102a857610465610a8136600461093c565b90611c9b565b346102a857610465610a9a36600461046a565b90611ca6565b909182601f830112156102a8578135916001600160401b0383116102a85760200192602083028401116102a857565b90916040828403126102a85781356001600160401b0381116102a85783610af7918401610aa0565b92909360208201356001600160401b0381116102a85761055f9201610aa0565b346102a857610465610b2a366004610acf565b92919091611dfc565b90610b3d906106e3565b5f5260205260405f2090565b6102cf9081565b6102cf9054610b49565b610b65906010610b33565b90610b7782546001600160a01b031690565b91610b8460018201610b50565b91610b9160028301610b50565b91610b9e60038201610b50565b916102cf6005610bb060048501610b50565b9301610b50565b9194610c07610c0e92989795610bfd60a096610bf36102b99a610be960c08a019e5f8b01906001600160a01b03169052565b60208901906106f0565b60408701906106f0565b60608501906106f0565b6080830152565b0152565b346102a857610304610c2d610c283660046103b7565b610b5a565b92610c3d96949692919260405190565b96879687610bb7565b346102a8576103046102f1610c5c3660046105cd565b90611e1d565b906080828203126102a857610c77818361041c565b92610c85826020850161041c565b92610c9383604083016103aa565b9260608201356001600160401b0381116102a8576102cf92016109fb565b346102a857610465610cc4366004610c62565b92919091611e41565b346102a857610cdd366004610308565b610465611f23565b346102a857610304610725610cfb3660046103b7565b611f2b565b346102a857610d10366004610308565b610465611fe7565b90916060828403126102a8576102cf610d3184846103aa565b9361062781602086016103aa565b604090610d686102b99496959396610d5e60608401985f8501906106f0565b60208301906106f0565b01906106f0565b346102a857610304610d8b610d85366004610d18565b91612048565b60405191939193849384610d3f565b346102a857610304610397610db03660046103b7565b612130565b346102a857610304610588610dcb36600461046a565b906121da565b6102cf6014610b50565b346102a857610deb366004610308565b610304610588610dd1565b346102a8576103046102f1610e0c3660046105cd565b90612212565b80610e2d63780e9d6360e01b5b916001600160e01b03191690565b14908115610e39575090565b6102cf915061222c565b6102cf90610898565b6102cf5f610e43565b610e746102cf91610e635f90565b50610e6d81612272565b6004610b33565b546001600160a01b031690565b6102b9916122bc565b15610e9157565b60405162461bcd60e51b815260206004820152602160248201527f4552433732313a20617070726f76616c20746f2063757272656e74206f776e656044820152603960f91b6064820152608490fd5b0390fd5b15610eeb57565b60405162461bcd60e51b815260206004820152603d60248201527f4552433732313a20617070726f76652063616c6c6572206973206e6f7420746f60448201527f6b656e206f776e6572206f7220617070726f76656420666f7220616c6c0000006064820152608490fd5b906102b991610faf610f67836118bc565b610f8d83610f866001600160a01b0384165b916001600160a01b031690565b1415610e8a565b33610fa06001600160a01b038316610f79565b14908115610fb4575b50610ee4565b6122d8565b610fbf915033610e0c565b5f610fa9565b6102cf9136916109cc565b6102cf906103cb906001600160a01b031682565b6102cf90610fd0565b6102cf90610fe4565b905051906102b982610927565b906020828203126102a8576102cf91610ff6565b6001600160a01b0390911681526060810193926102b9929091604091610d68905b6001600160a01b03166020830152565b6040513d5f823e3d90fd5b6102cf60c0610991565b906001600160a01b03905b9181191691161790565b906110826102cf61108992610fed565b825461105d565b9055565b905f1990611068565b906110a66102cf611089926106e3565b825461108d565b6102b991906110e99060a0906005906110d7816110d187516001600160a01b031690565b90611072565b6110ef600182016110e9602088015190565b90611096565b611101600282016110e9604088015190565b611113600382016110e9606088015190565b611125600482016110e9608088015190565b0192015190565b906102b9916110ad565b95949661115e611176929a9961116f61116461119c966111535f90565b5061115e8487610fc5565b90612359565b9661115e8386610fc5565b9692610fc5565b916111848588838688612383565b906111966111915f6106e3565b612422565b9161243f565b916111a76014612470565b6111b1601461248e565b976111bc81856124a1565b6111cd6111c882610fed565b610fed565b9460206323b872dd9633906112005f6111e530610fed565b9a61120b8b6111f360405190565b9d8e978896879560e01b90565b855260048501611017565b03925af191821561130a576102b9986112646112799661125d61126b946112899b611272986112de575b50999791939597611256611247611053565b6001600160a01b03909c168c52565b60208b0152565b6040890152565b6060870152565b6080850152565b60a0830152565b611284866010610b33565b61112c565b6112b16112a2600261129c876010610b33565b01610b50565b6112ab30610fed565b906124a1565b6112c46112a2600361129c876010610b33565b6112d76112a2600161129c876010610b33565b83906124b3565b6112fe9060203d8111611303575b6112f68183610872565b810190611003565b611235565b503d6112ec565b611048565b1561131657565b60405162461bcd60e51b815260206004820152600e60248201526d10b7bbb732b927b832b930ba37b960911b6044820152606490fd5b1561135357565b60405162461bcd60e51b815260206004820152600e60248201526d085cd95b1988185c1c1c9bdd985b60921b6044820152606490fd5b906102b9916113bc61139a836118bc565b336113ad6001600160a01b038316610f79565b149081156113d5575b5061130f565b6113d0816113c933610f79565b141561134c565b6124ef565b6113e191503390611e1d565b5f6113b6565b906113f1336119fb565b915f5b83816113ff565b9190565b10156114645761144f906114138133611557565b6114305f611422836010610b33565b01546001600160a01b031690565b6114426001600160a01b038616610f79565b14611454575b5060010190565b6113f4565b61145e90856122bc565b5f611448565b50505050565b1561147157565b60405162461bcd60e51b815260206004820152602d60248201527f4552433732313a2063616c6c6572206973206e6f7420746f6b656e206f776e6560448201526c1c881bdc88185c1c1c9bdd9959609a1b6064820152608490fd5b6102b992906114e56114e0335b849061254e565b61146a565b919091612667565b156114f457565b60405162461bcd60e51b815260206004820152602b60248201527f455243373231456e756d657261626c653a206f776e657220696e646578206f7560448201526a74206f6620626f756e647360a81b6064820152608490fd5b90610b3d90610fed565b6102cf9161158a61158f926115695f90565b506115838361157d6113fb6102cf856119fb565b106114ed565b600661154d565b610b33565b610b50565b610e746102cf916115a25f90565b506115ac81612272565b600a610b33565b906115c06109dc836109a5565b918252565b6102cf5f6115b3565b6102cf6115c5565b916102b992916115e46115ce565b92611e41565b6103cb6102cf6102cf9290565b6102cf906115ea565b1561160757565b60405162461bcd60e51b815260206004820152600b60248201526a216164647265737328302960a81b6044820152606490fd5b61158f6102cf916116485f90565b506116638161165c610f796103cb5f6115f7565b1415611600565b600d61154d565b1561167157565b60405162461bcd60e51b815260206004820152602c60248201527f455243373231456e756d657261626c653a20676c6f62616c20696e646578206f60448201526b7574206f6620626f756e647360a01b6064820152608490fd5b634e487b7160e01b5f52603260045260245ffd5b80548210156116ff576116f76001915f5260205f2090565b910201905f90565b6116cb565b6102cf916008021c81565b906102cf9154611704565b6117496102cf916117285f90565b506117428161173c6113fb6102cf60085490565b1061166a565b60086116df565b9061170f565b906102b96117da6005611760611053565b9461178261177582546001600160a01b031690565b6001600160a01b03168752565b61179861179160018301610b50565b6020880152565b6117ae6117a760028301610b50565b6040880152565b6117c46117bd60038301610b50565b6060880152565b61129c6117d360048301610b50565b6080880152565b60a0840152565b6102cf9061174f565b91905f926117f7816119fb565b925f5b848110156118695761181e6118196118128386611557565b6010610b33565b6117e1565b84611836610f796103cb84516001600160a01b031690565b1461184a575b506001016117fa565b6117fa565b611845919661185d602061186293015190565b61276c565b959061183c565b5092505050565b1561187757565b60405162461bcd60e51b815260206004820152601860248201527f4552433732313a20696e76616c696420746f6b656e20494400000000000000006044820152606490fd5b6118c8905f5b506127dc565b6102cf816118db610f796103cb5f6115f7565b1415611870565b91905f906118ef8461163a565b925f5b848110156119675761190a61181961181283896121da565b83611922610f796103cb84516001600160a01b031690565b14611936575b506001016118f2565b6118f2565b611931919461185d602061194993015190565b9361195433866124a1565b611961856112ab30610fed565b90611928565b509250509150565b610e746102cf9161197d5f90565b50600c610b33565b6102b990611994428083612048565b92909190612827565b156119a457565b60405162461bcd60e51b815260206004820152602960248201527f4552433732313a2061646472657373207a65726f206973206e6f7420612076616044820152683634b21037bbb732b960b91b6064820152608490fd5b61158f6102cf91611a095f90565b50611a2481611a1d610f796103cb5f6115f7565b141561199d565b600361154d565b6102b991611a3a8183336128f6565b90336129b3565b6102b99190336128f6565b6102cf9060081c6103cb565b6102cf9054611a4c565b15611a6957565b60405162461bcd60e51b815260206004820152600660248201526510a0a226a4a760d11b6044820152606490fd5b915f1960089290920291821b911b611068565b9190611abb6102cf611089936106e3565b908354611a97565b6102b9915f91611aaa565b818110611ad9575050565b80611ae65f600193611ac3565b01611ace565b9190601f8111611afb57505050565b611b0b6102b9935f5260205f2090565b906020601f840181900483019310611b2d575b6020601f909101040190611ace565b9091508190611b1e565b90611b40815190565b906001600160401b03821161089357611b6382611b5d85546107aa565b85611aec565b602090601f8311600114611b9c5761108992915f9183611b91575b50505f19600883021c1916906002021790565b015190505f80611b7e565b601f19831691611baf855f5260205f2090565b925f5b818110611beb57509160029391856001969410611bd3575b50505002019055565b01515f196008601f8516021c191690555f8080611bca565b91936020600181928787015181550195019201611bb2565b906102b991611b37565b9060ff90611068565b90611c266102cf61108992151590565b8254611c0d565b611c4733611c41610f796103cb6013611a58565b14611a62565b611c52816012611c03565b611c5e60016013611c16565b611c8c7fde63cc2d19581e57e158d078c2df83f9ab70addd6257f7f12bfecb21c06c91289161039b60405190565b0390a1565b6102cf6001610e43565b6102b99190336129b3565b906102b991611cd8611cb7836118bc565b33611cca6001600160a01b038316610f79565b14908115611cef575061130f565b611ce5816113c933610f79565b610faf82826124ef565b9050611cfb3382611e1d565b9081611d09575b505f6113b6565b611d1591503390612212565b5f611d02565b90611d38939291611d2a612a83565b93929091611da48284611d9e565b6102b9612ac1565b15611d4757565b60405162461bcd60e51b815260206004820152600b60248201526a30b93930bc9032b93937b960a91b6044820152606490fd5b91908110156116ff576020020190565b356102cf8161040d565b356102cf816103a4565b14611d40565b5f5b80611db0856113fb565b1015611df457611def90611de9611dd0611dcb838787611d7a565b611d8a565b611de3611dde84898c611d7a565b611d94565b906122bc565b60010190565b611da6565b505050509050565b906102b9939291611d1b565b6102cf905b60ff1690565b6102cf9054611e08565b6102cf91611e37611e3c92611e2f5f90565b50600b61154d565b61154d565b611e13565b6102b993919290611e546114e0336114d9565b92909192612b34565b611e65612a83565b611d38611ed5565b6001600160401b0381116108935760208091020190565b906115c06109dc83611e6d565b369037565b906102b9611ea383611e84565b92602080611eb18693611e6d565b9201910390611e91565b90611ec4825190565b8110156116ff576020809102010190565b611ede336119fb565b611ee781611e96565b915f5b82811015611f1557611f1090611de9611f038233611557565b611f0d8388611ebb565b52565b611eea565b50916102b991504290612b57565b6102b9611e5d565b611f446118196102cf92611f3c5f90565b506010610b33565b604081015190611f55602082015190565b611f6b60a0611f65608085015190565b93015190565b92612bf5565b15611f7857565b60405162461bcd60e51b815280610ee0600482016020808252600490820152630854d15560e21b604082015260600190565b916001600160a01b0360089290920291821b911b611068565b9190611fd46102cf61108993610fed565b908354611faa565b6102b9915f91611fc3565b611ffb33611c41610f796103cb6013611a58565b61200d6120086013611e13565b611f71565b61201960016013611fdc565b33611c8c7fa775782c93424d570e142a52abffaedcebb0e9cd73cca502455acb0587efb6b7916103f660405190565b6120d192909161205e600261129c856010610b33565b61206e600361129c866010610b33565b9361207f600161129c836010610b33565b61209d600561129c612095600482876010610b33565b946010610b33565b926120ab816112ab30610fed565b6120b8876112ab30610fed565b6120c5826112ab30610fed565b95909192939495612c59565b9091926120e1846112ab30610fed565b6120ee836112ab30610fed565b6102b9826112ab30610fed565b6103676121139260209261210d815190565b94859290565b93849101610312565b61212a906102cf93926120fb565b906120fb565b61213981612272565b612141612d33565b9061214a825190565b6121566113fb5f6106e3565b1115612194576102cf61216c6102cf9392612d7b565b9161218561217960405190565b9384926020840161211c565b60208201810382520382610872565b50506102cf6115ce565b156121a557565b60405162461bcd60e51b815260206004820152600d60248201526c6f7574206f6620626f756e647360981b6044820152606490fd5b6102cf9161158a61158f926121ec5f90565b5061220b836122056113fb6102cf61158f86600d61154d565b1061219e565b600e61154d565b6102cf91611e37611e3c926122245f90565b50600561154d565b8061223d6380ac58cd60e01b610e1f565b14801561225a575b908115612250575090565b6102cf9150612df2565b508061226c635b5e139f60e01b610e1f565b14612245565b61227e6102b991612e02565b611870565b1561228a57565b60405162461bcd60e51b815260206004820152600a60248201526910b232b632b3b0ba37b960b11b6044820152606490fd5b6102b991906122d36122ce8333612e20565b612283565b612e76565b906122ed826122e8836004610b33565b611072565b6122f6816118bc565b9161233361232d6123277f8c5be1e5ebec7d5bd14f71427d1e84f3dd0314c0f7b2291e5b200ac8c7c3b92595610fed565b92610fed565b926106e3565b9261233d60405190565b5f90a4565b611e0d6102cf6102cf9290565b6102cf6005612342565b6102cf9161236f61237e9261236b5f90565b5090565b9061237861234f565b91612f2f565b6106e3565b6123d2906123e26123e994612414976124029761239d5f90565b506123d86123b46123ad83612422565b8590613048565b6123d26123c085612422565b6123cc6111915f6106e3565b906130b4565b90613120565b9492909192612bf5565b9092613048565b6123f56111915f6106e3565b61119661119160016106e3565b61240e6111915f6106e3565b9061313b565b906102b9826112ab30610fed565b61237e6102cf916124305f90565b5061243961234f565b906131c8565b906102cf9261246a61246461245e61237e956124585f90565b506106e3565b936106e3565b916106e3565b91613259565b6102b9906110e95f61248260016106e3565b92019161036783610b50565b5f6102cf9161249a5f90565b5001610b50565b906124ae6102b9926106e3565b6132a5565b6102b9916124bf6115ce565b916132e3565b6001600160a01b0390911681526040810192916102b9916020905b01906001600160a01b03169052565b906124ff826122e883600a610b33565b612508816118bc565b916125337f5f05f4f4b46d943d34b887b4741055b5ab6decb7b4fd2670a98969d38a364080926106e3565b9261254961254060405190565b928392836124c5565b0390a2565b612557826118bc565b8161256a6001600160a01b038316610f79565b149081156125a3575b5091821561258057505090565b61259f919250612592610f7991610e55565b926001600160a01b031690565b1490565b6125af91508290612212565b5f612573565b156125bc57565b60405162461bcd60e51b815260206004820152602560248201527f4552433732313a207472616e736665722066726f6d20696e636f72726563742060448201526437bbb732b960d91b6064820152608490fd5b1561261657565b60405162461bcd60e51b8152602060048201526024808201527f4552433732313a207472616e7366657220746f20746865207a65726f206164646044820152637265737360e01b6064820152608490fd5b91909161268e612676836118bc565b6126886001600160a01b038416610f79565b146125b5565b6126a8836126a1610f796103cb5f6115f7565b141561260f565b6126be8183856126b860016106e3565b926132fe565b6126ca612676836118bc565b6126de5f6126d9846004610b33565b611fdc565b6127076126eb60016106e3565b6110e96126f984600361154d565b9161270383610b50565b0390565b61272c61271460016106e3565b6110e961272286600361154d565b9161036783610b50565b61273b836122e8846002610b33565b9161233361232d6123277fddf252ad1be2c89b69c2b068fc378daa952ba7f163c4a11628f55a4df523b3ef95610fed565b6102cf9161237e9161278461278082613353565b1590565b6127ca575b61279561278083613353565b6127ad575b6124646127a6916106e3565b5f91613391565b90506127a66124646127c16111915f6106e3565b9291505061279a565b506127d76111915f6106e3565b612789565b610e746102cf916127ea5f90565b506002610b33565b156127f957565b60405162461bcd60e51b815260206004820152600660248201526510b7bbb732b960d11b6044820152606490fd5b6128809060026128726102b996959495612852612843856118bc565b61284c33610f79565b146127f2565b6128786128645f611422876010610b33565b966001612872876010610b33565b01611096565b926010610b33565b61288a81836124a1565b3390613410565b1561289857565b60405162461bcd60e51b815260206004820152600960248201526810b7b832b930ba37b960b91b6044820152606490fd5b6001600160a01b0390911681526060810193926102b99290916040916128ee90611038565b019015159052565b9091906129168161290f6001600160a01b038616610f79565b1415612891565b6129348261292f61292884600b61154d565b869061154d565b611c16565b6040517f947bc3b5c76434e50335b9127e82fb1abb17b34d9380caf2a64cd8c6f43711849392611c8c91938493846128c9565b1561296e57565b60405162461bcd60e51b815260206004820152601960248201527f4552433732313a20617070726f766520746f2063616c6c6572000000000000006044820152606490fd5b9091906129d3816129cc6001600160a01b038616610f79565b1415612967565b6129e58261292f61292884600561154d565b919091612a28612a1e612a187f17307eab39ab6107e8899845ad3d59bd9653f200f220920489ca2b5937696c3193610fed565b93610fed565b936102f560405190565b0390a3565b6102cf60026106e3565b15612a3e57565b60405162461bcd60e51b815260206004820152601f60248201527f5265656e7472616e637947756172643a207265656e7472616e742063616c6c006044820152606490fd5b612aa5612a906011610b50565b612a9e6113fb6102cf612a2d565b1415612a37565b6102b9612ab0612a2d565b6011611096565b6102cf60016106e3565b6102b9612ab0612ab7565b15612ad357565b6040515b62461bcd60e51b815260206004820152603260248201527f4552433732313a207472616e7366657220746f206e6f6e20455243373231526560448201527131b2b4bb32b91034b6b83632b6b2b73a32b960711b6064820152608490fd5b92612b52926102b994612b4981858491612667565b929091926134de565b612acc565b91905f5b80612b6a6113fb6102cf875190565b1015612bd657612bd190611de9612b93612b8b612b878489611ebb565b5190565b428691612048565b90612ba1836112ab30610fed565b612bae816112ab30610fed565b612bbb826112ab30610fed565b612bc8612b87868b611ebb565b92909192612827565b612b5b565b50509050565b612be96102cf6102cf9290565b6001600160401b031690565b90612c4d6124149493612c4761119693612c0c5f90565b50612c41612c2661240283612c2087612bdc565b906135cc565b9693612c3b612c348a612422565b9391612bdc565b90613618565b9061365e565b9061276c565b9192612c478391612422565b91969493612c47612d15612cfb612ce3612cd8612ccf612cc8612cc2611196998f612cbd906124149f8e612cb2612cac612cb793612c945f90565b506123cc612ca5856123cc84612422565b9891612422565b93612422565b613048565b926136ca565b6136ca565b9d612422565b89906136e5565b612c3b87612bdc565b97612c418991612422565b8a906111968d612cf56111915f6106e3565b92613751565b99612d098b6112ab30610fed565b89906111968c826136e5565b97612d23896112ab30610fed565b94612d2e8593612422565b61365e565b6102cf6012610e43565b906102b9612d4a836115b3565b92602080611eb186936109a5565b634e487b7160e01b5f52601260045260245ffd5b8115612d76570490565b612d58565b612d91612d87826137bd565b61036760016106e3565b90612d9b82612d3d565b9160200182015b612dd5905f1901916f181899199a1a9b1b9c1cb0b131b232b360811b600a82061a8353612dcf600a6106e3565b90612d6c565b80612de26113fb5f6106e3565b14612ded5790612da2565b505090565b61259f6301ffc9a760e01b610e1f565b612e0c905f6118c2565b612e1b610f796103cb5f6115f7565b141590565b612e29826118bc565b81612e3c6001600160a01b038316610f79565b14908115612e64575b50918215612e5257505090565b61259f919250612592610f7991611594565b612e7091508290611e1d565b5f612e45565b906102b991612e84826139b3565b613b12565b612e9f612e996102cf9260ff1690565b60f81b90565b6001600160f81b03191690565b905051906102b9826103a4565b906020828203126102a8576102cf91612eac565b9493916060916102b994612efc612f0993612eec60808b01945f8c0152565b6001600160a01b031660208a0152565b8782036040890152610333565b9401906001600160f81b0319169052565b9081526040810192916102b9916020906124e0565b9091602091612f7c5f612f4f6111c85f8051602061429183398151915281565b92612f87632e817ff09195612f65339991612e89565b90612f6f60405190565b998a988997889660e01b90565b865260048601612ecd565b03925af190811561130a575f9161301a575b5090612fb96111c8732fb4341027eb1d2ad8b5d9708187df8633cafa9281565b638d9c9c92833392803b156102a857612fe75f8094612ff2612fda60405190565b9788968795869460e01b90565b845260048401612f1a565b03925af1801561130a576130035750565b6102b9905f6130128183610872565b810190610308565b61303b915060203d8111613041575b6130338183610872565b810190612eb9565b5f612f99565b503d613029565b6102cf9161237e9161305c61278082613353565b6130a2575b61306d61278083613353565b613085575b61246461307e916106e3565b5f91613bbb565b905061307e6124646130996111915f6106e3565b92915050613072565b506130af6111915f6106e3565b613061565b6102cf9161237e916130c861278082613353565b61310e575b6130d961278083613353565b6130f1575b6124646130ea916106e3565b5f91613c10565b90506130ea6124646131056111915f6106e3565b929150506130de565b5061311b6111915f6106e3565b6130cd565b6102cf9161313561246461237e936124585f90565b90613c65565b6102cf9161237e9161314f61278082613353565b613195575b61316061278083613353565b613178575b612464613171916106e3565b5f91613ca3565b905061317161246461318c6111915f6106e3565b92915050613165565b506131a26111915f6106e3565b613154565b9081526040810192916102b9916020905b01906001600160f81b0319169052565b906020906131e36111c85f8051602061429183398151915281565b6132035f6131f663e71746b89694612e89565b9561320e612fda60405190565b8452600484016131a7565b03925af190811561130a575f91613223575090565b6102cf915060203d8111613041576130338183610872565b9081526060810193926102b9929091604091610c0e905b6020830152565b6020919061329a5f6132786111c85f8051602061429183398151915281565b9261320e63cb3b940791959761328d60405190565b9889978896879560e01b90565b85526004850161323b565b6132c36111c8732fb4341027eb1d2ad8b5d9708187df8633cafa9281565b6365d0509c9190803b156102a857612fe75f8094612ff2612fda60405190565b6102b992612b52926132f58184613d94565b612b495f6115f7565b9290919061330e90828486613e1d565b9161331e610f796103cb5f6115f7565b14613344575b613333610f796103cb5f6115f7565b1461333b5750565b6102b9906139b3565b61334e8282613b12565b613324565b61335d905f612458565b612e1b6113fb5f6106e3565b612e9f612e996102cf9290565b9081526060810193926102b99290916040916131b890613252565b9160209190156133e2576133a56001613369565b925b6133d75f6133c26111c85f8051602061429183398151915281565b9261320e63f953e42791959761328d60405190565b855260048501613376565b6133eb5f613369565b926133a7565b6001600160a01b0390911681526040810192916102b991602090610d68565b916134206111c860209394610fed565b6134385f63a9059cbb959395613443612fda60405190565b8452600484016133f1565b03925af1801561130a576134545750565b61346b9060203d8111611303576112f68183610872565b50565b905051906102b982610295565b906020828203126102a8576102cf9161346e565b6001600160a01b0391821681529116602082015260408101919091526080606082018190526102cf92910190610333565b3d156134d9576134cf3d6115b3565b903d5f602084013e565b606090565b9093925f946134ec81613e34565b156135ac57906135215f6135056111c860209695610fed565b9261352c63150b7a02916135163390565b9698612f6f60405190565b86526004860161348f565b03925af15f918161357c575b5061356957506135466134c0565b80516135546113fb5f6106e3565b0361356157604051612ad7565b805190602001fd5b90915061259f630a85bd0160e11b610e1f565b61359e91925060203d81116135a5575b6135968183610872565b81019061347b565b905f613538565b503d61358c565b5060019450505050565b6102cf6102cf6102cf926001600160401b031690565b6102cf9161237e916135e061278082613353565b6135fd575b6135f16135f7916106e3565b916135b6565b90613e45565b506135f76135f16136106111915f6106e3565b9150506135e5565b6102cf9161237e9161362c61278082613353565b613643575b6135f161363d916106e3565b90613e84565b5061363d6135f16136566111915f6106e3565b915050613631565b6102cf9161237e9161367261278082613353565b6136b8575b61368361278083613353565b61369b575b612464613694916106e3565b5f91613ec3565b90506136946124646136af6111915f6106e3565b92915050613688565b506136c56111915f6106e3565b613677565b6102cf916136df61246461237e936124585f90565b90613f18565b6102cf9161237e916136f961278082613353565b61373f575b61370a61278083613353565b613722575b61246461371b916106e3565b5f91613f56565b905061371b6124646137366111915f6106e3565b9291505061370f565b5061374c6111915f6106e3565b6136fe565b6102cf9161237e9161376561278082613353565b6137ab575b61377661278083613353565b61378e575b612464613787916106e3565b5f91613fab565b90506137876124646137a26111915f6106e3565b9291505061377b565b506137b86111915f6106e3565b61376a565b6137c65f6106e3565b90806137ea6113fb72184f03e93ff9f4daa797ed6e38ed64bf6a1f0160401b6106e3565b1015613956575b8061380c6113fb6d04ee2d6d415b85acef81000000006106e3565b1015613927575b806138276113fb662386f26fc100006106e3565b10156138ff575b8061383f6113fb6305f5e1006106e3565b10156138da575b806138556113fb6127106106e3565b10156138b7575b8061386a6113fb60646106e3565b1015613895575b61387e6113fb600a6106e3565b10156138875790565b6102cf9061036760016106e3565b6138a66138b191612dcf60646106e3565b9161036760026106e3565b90613871565b6138c96138d491612dcf6127106106e3565b9161036760046106e3565b9061385c565b6138ee6138f991612dcf6305f5e1006106e3565b9161036760086106e3565b90613846565b61391661392191612dcf662386f26fc100006106e3565b9161036760106106e3565b9061382e565b61394561395091612dcf6d04ee2d6d415b85acef81000000006106e3565b9161036760206106e3565b90613813565b61397c61398791612dcf72184f03e93ff9f4daa797ed6e38ed64bf6a1f0160401b6106e3565b9161036760406106e3565b906137f1565b634e487b7160e01b5f52601160045260245ffd5b919082039182116139ae57565b61398d565b6139c1610e7482600c610b33565b906139d58261165c610f796103cb5f6115f7565b613a335f613a236139fd6139ed61158f87600d61154d565b6139f760016106e3565b906139a1565b613a0b61158f86600f610b33565b818103613ab9575b50613a2883613a2387600f610b33565b611ac3565b61158a86600e61154d565b613a5d613a4060016106e3565b6110e9613a4e85600d61154d565b91613a5883610b50565b6139a1565b613a74613a695f6115f7565b6122e883600c610b33565b90613aa8613aa27f09f87139523b83583b15f476015dd9a27fae3a03f17202cdf77d063bef5d21c2936106e3565b91610fed565b91613ab260405190565b8080612a28565b613aff90613af2613ad861158f613ad18b600e61154d565b8690610b33565b91613af783613af2613aeb8d600e61154d565b8490610b33565b611096565b91600f610b33565b5f613a13565b919082018092116139ae57565b90613b268261165c610f796103cb5f6115f7565b613b54613b3761158f84600d61154d565b613b4983613af2613aeb87600e61154d565b613af283600f610b33565b613b63826122e883600c610b33565b613b8d613b7060016106e3565b6110e9613b7e85600d61154d565b91613b8883610b50565b613b05565b90613aa8613aa27fcd57880fa6fb6b4aedb77272d2cfa8d03186b5034f9b672ccfcd3cd6edfecc9b936106e3565b916020919015613c0157613bcf6001613369565b925b6133d75f613bec6111c85f8051602061429183398151915281565b9261320e63694daf7291959761328d60405190565b613c0a5f613369565b92613bd1565b916020919015613c5657613c246001613369565b925b6133d75f613c416111c85f8051602061429183398151915281565b9261320e633e63c50a91959761328d60405190565b613c5f5f613369565b92613c26565b90602090613c725f613369565b926133d75f613c8e6111c85f8051602061429183398151915281565b9261320e63666a358891959761328d60405190565b916020919015613ce957613cb76001613369565b925b6133d75f613cd46111c85f8051602061429183398151915281565b9261320e636be3175891959761328d60405190565b613cf25f613369565b92613cb9565b15613cff57565b60405162461bcd60e51b815280610ee0600482016020808252818101527f4552433732313a206d696e7420746f20746865207a65726f2061646472657373604082015260600190565b15613d4f57565b60405162461bcd60e51b815260206004820152601c60248201527f4552433732313a20746f6b656e20616c7265616479206d696e746564000000006044820152606490fd5b90613daf82613da8610f796103cb5f6115f7565b1415613cf8565b613dc3613dbe61278083612e02565b613d48565b613ddb613dcf5f6115f7565b82846126b860016106e3565b613dea613dbe61278083612e02565b613e05613df760016106e3565b6110e961272285600361154d565b613e14826122e8836002610b33565b61273b5f6115f7565b916115ac6126d9926102b9955f9591849192614000565b3b613e416113fb5f6106e3565b1190565b90602090613e536001613369565b926133d75f613e6f6111c85f8051602061429183398151915281565b9261320e63e0c516ae91959761328d60405190565b90602090613e926001613369565b926133d75f613eae6111c85f8051602061429183398151915281565b9261320e6336cdd31b91959761328d60405190565b916020919015613f0957613ed76001613369565b925b6133d75f613ef46111c85f8051602061429183398151915281565b9261320e63816d57d391959761328d60405190565b613f125f613369565b92613ed9565b90602090613f255f613369565b926133d75f613f416111c85f8051602061429183398151915281565b9261320e63ec4057dc91959761328d60405190565b916020919015613f9c57613f6a6001613369565b925b6133d75f613f876111c85f8051602061429183398151915281565b9261320e638c14cc2191959761328d60405190565b613fa55f613369565b92613f6c565b916020919015613ff157613fbf6001613369565b925b6133d75f613fdc6111c85f8051602061429183398151915281565b9261320e63a87deac491959761328d60405190565b613ffa5f613369565b92613fc1565b9190926140106113fb60016106e3565b116140a1579080614026610f796103cb5f6115f7565b0361407a57614034826141b0565b82614044610f796103cb5f6115f7565b0361405457506102b99150614231565b614068610f7984926001600160a01b031690565b03614071575050565b6102b9916141d2565b8061408d6001600160a01b038516610f79565b146140345761409c8282614104565b614034565b60405162461bcd60e51b815260206004820152603560248201527f455243373231456e756d657261626c653a20636f6e7365637574697665207472604482015274185b9cd9995c9cc81b9bdd081cdd5c1c1bdc9d1959605a1b6064820152608490fd5b613a236102b99261158a5f9361158385613a236141236139ed856119fb565b9561413261158f826007610b33565b878103614142575b506007610b33565b61417c90613af261416161158f61415a8a600661154d565b8c90610b33565b9161417483613af2613aeb8c600661154d565b916007610b33565b5f61413a565b908154916801000000000000000083101561089357826141aa9160016102b9950181556116df565b90611aaa565b6102b9906141cb6141c060085490565b613af2836009610b33565b6008614182565b90613af26102b9926141746141e6826119fb565b91613af2613aeb8692600661154d565b634e487b7160e01b5f52603160045260245ffd5b8054801561422c575f19019061422961422383836116df565b90611ac3565b55565b6141f6565b5f613a236142869261427f6142486139ed60085490565b613af261426761174961425f61158f876009610b33565b9360086116df565b91614277836141aa8360086116df565b916009610b33565b6009610b33565b6102b9600861420a56fe00000000000000000000000005fd9b5efe0a996095f42ed7e77c390810cf660ca164736f6c6343000818000a",
  "linkReferences": {},
  "deployedLinkReferences": {}
}