{
    "_format": "hh-sol-artifact-1",
    "contractName": "CTokenVestingPlans",
    "sourceName": "contracts/ConfidentialVesting/Cvestingplan.sol",
    "abi": [
        {
            "inputs": [
                {
                    "internalType": "string",
                    "name": "name",
                    "type": "string"
                },
                {
                    "internalType": "string",
                    "name": "symbol",
                    "type": "string"
                }
            ],
            "stateMutability": "nonpayable",
            "type": "constructor"
        },
        {
            "anonymous": false,
            "inputs": [
                {
                    "indexed": true,
                    "internalType": "address",
                    "name": "owner",
                    "type": "address"
                },
                {
                    "indexed": true,
                    "internalType": "address",
                    "name": "approved",
                    "type": "address"
                },
                {
                    "indexed": true,
                    "internalType": "uint256",
                    "name": "tokenId",
                    "type": "uint256"
                }
            ],
            "name": "Approval",
            "type": "event"
        },
        {
            "anonymous": false,
            "inputs": [
                {
                    "indexed": true,
                    "internalType": "address",
                    "name": "owner",
                    "type": "address"
                },
                {
                    "indexed": true,
                    "internalType": "address",
                    "name": "operator",
                    "type": "address"
                },
                {
                    "indexed": false,
                    "internalType": "bool",
                    "name": "approved",
                    "type": "bool"
                }
            ],
            "name": "ApprovalForAll",
            "type": "event"
        },
        {
            "anonymous": false,
            "inputs": [
                {
                    "indexed": false,
                    "internalType": "address",
                    "name": "owner",
                    "type": "address"
                },
                {
                    "indexed": false,
                    "internalType": "address",
                    "name": "operator",
                    "type": "address"
                },
                {
                    "indexed": false,
                    "internalType": "bool",
                    "name": "approved",
                    "type": "bool"
                }
            ],
            "name": "ApprovalForAllDelegation",
            "type": "event"
        },
        {
            "anonymous": false,
            "inputs": [
                {
                    "indexed": true,
                    "internalType": "uint256",
                    "name": "tokenId",
                    "type": "uint256"
                },
                {
                    "indexed": true,
                    "internalType": "address",
                    "name": "delegate",
                    "type": "address"
                }
            ],
            "name": "DelegateRemoved",
            "type": "event"
        },
        {
            "anonymous": false,
            "inputs": [
                {
                    "indexed": true,
                    "internalType": "uint256",
                    "name": "id",
                    "type": "uint256"
                },
                {
                    "indexed": false,
                    "internalType": "address",
                    "name": "owner",
                    "type": "address"
                },
                {
                    "indexed": false,
                    "internalType": "address",
                    "name": "delegator",
                    "type": "address"
                }
            ],
            "name": "DelegatorApproved",
            "type": "event"
        },
        {
            "anonymous": false,
            "inputs": [
                {
                    "indexed": true,
                    "internalType": "uint256",
                    "name": "id",
                    "type": "uint256"
                },
                {
                    "indexed": true,
                    "internalType": "address",
                    "name": "recipient",
                    "type": "address"
                },
                {
                    "indexed": true,
                    "internalType": "address",
                    "name": "token",
                    "type": "address"
                },
                {
                    "indexed": false,
                    "internalType": "euint64",
                    "name": "amount",
                    "type": "uint256"
                },
                {
                    "indexed": false,
                    "internalType": "euint64",
                    "name": "start",
                    "type": "uint256"
                },
                {
                    "indexed": false,
                    "internalType": "euint64",
                    "name": "cliff",
                    "type": "uint256"
                },
                {
                    "indexed": false,
                    "internalType": "uint256",
                    "name": "end",
                    "type": "uint256"
                },
                {
                    "indexed": false,
                    "internalType": "uint256",
                    "name": "rate",
                    "type": "uint256"
                },
                {
                    "indexed": false,
                    "internalType": "uint256",
                    "name": "period",
                    "type": "uint256"
                }
            ],
            "name": "PlanCreated",
            "type": "event"
        },
        {
            "anonymous": false,
            "inputs": [
                {
                    "indexed": true,
                    "internalType": "uint256",
                    "name": "tokenId",
                    "type": "uint256"
                },
                {
                    "indexed": true,
                    "internalType": "address",
                    "name": "delegate",
                    "type": "address"
                }
            ],
            "name": "TokenDelegated",
            "type": "event"
        },
        {
            "anonymous": false,
            "inputs": [
                {
                    "indexed": true,
                    "internalType": "address",
                    "name": "from",
                    "type": "address"
                },
                {
                    "indexed": true,
                    "internalType": "address",
                    "name": "to",
                    "type": "address"
                },
                {
                    "indexed": true,
                    "internalType": "uint256",
                    "name": "tokenId",
                    "type": "uint256"
                }
            ],
            "name": "Transfer",
            "type": "event"
        },
        {
            "anonymous": false,
            "inputs": [
                {
                    "indexed": false,
                    "internalType": "address",
                    "name": "_admin",
                    "type": "address"
                }
            ],
            "name": "URIAdminDeleted",
            "type": "event"
        },
        {
            "anonymous": false,
            "inputs": [
                {
                    "indexed": false,
                    "internalType": "string",
                    "name": "newURI",
                    "type": "string"
                }
            ],
            "name": "URISet",
            "type": "event"
        },
        {
            "inputs": [
                {
                    "internalType": "address",
                    "name": "to",
                    "type": "address"
                },
                {
                    "internalType": "uint256",
                    "name": "tokenId",
                    "type": "uint256"
                }
            ],
            "name": "approve",
            "outputs": [],
            "stateMutability": "nonpayable",
            "type": "function"
        },
        {
            "inputs": [
                {
                    "internalType": "address",
                    "name": "delegator",
                    "type": "address"
                },
                {
                    "internalType": "uint256",
                    "name": "planId",
                    "type": "uint256"
                }
            ],
            "name": "approveDelegator",
            "outputs": [],
            "stateMutability": "nonpayable",
            "type": "function"
        },
        {
            "inputs": [
                {
                    "internalType": "address",
                    "name": "spender",
                    "type": "address"
                },
                {
                    "internalType": "uint256",
                    "name": "planId",
                    "type": "uint256"
                }
            ],
            "name": "approveSpenderDelegator",
            "outputs": [],
            "stateMutability": "nonpayable",
            "type": "function"
        },
        {
            "inputs": [
                {
                    "internalType": "address",
                    "name": "owner",
                    "type": "address"
                }
            ],
            "name": "balanceOf",
            "outputs": [
                {
                    "internalType": "uint256",
                    "name": "",
                    "type": "uint256"
                }
            ],
            "stateMutability": "view",
            "type": "function"
        },
        {
            "inputs": [
                {
                    "internalType": "address",
                    "name": "delegate",
                    "type": "address"
                }
            ],
            "name": "balanceOfDelegate",
            "outputs": [
                {
                    "internalType": "uint256",
                    "name": "",
                    "type": "uint256"
                }
            ],
            "stateMutability": "view",
            "type": "function"
        },
        {
            "inputs": [],
            "name": "baseURI",
            "outputs": [
                {
                    "internalType": "string",
                    "name": "",
                    "type": "string"
                }
            ],
            "stateMutability": "view",
            "type": "function"
        },
        {
            "inputs": [
                {
                    "internalType": "address",
                    "name": "recipient",
                    "type": "address"
                },
                {
                    "internalType": "address",
                    "name": "token",
                    "type": "address"
                },
                {
                    "internalType": "einput",
                    "name": "amount",
                    "type": "bytes32"
                },
                {
                    "internalType": "einput",
                    "name": "start",
                    "type": "bytes32"
                },
                {
                    "internalType": "einput",
                    "name": "cliff",
                    "type": "bytes32"
                },
                {
                    "internalType": "uint256",
                    "name": "rate",
                    "type": "uint256"
                },
                {
                    "internalType": "uint256",
                    "name": "period",
                    "type": "uint256"
                },
                {
                    "internalType": "bytes",
                    "name": "inputProof",
                    "type": "bytes"
                }
            ],
            "name": "createPlan",
            "outputs": [
                {
                    "internalType": "uint256",
                    "name": "newPlanId",
                    "type": "uint256"
                }
            ],
            "stateMutability": "nonpayable",
            "type": "function"
        },
        {
            "inputs": [
                {
                    "internalType": "uint256",
                    "name": "planId",
                    "type": "uint256"
                },
                {
                    "internalType": "address",
                    "name": "delegatee",
                    "type": "address"
                }
            ],
            "name": "delegate",
            "outputs": [],
            "stateMutability": "nonpayable",
            "type": "function"
        },
        {
            "inputs": [
                {
                    "internalType": "address",
                    "name": "token",
                    "type": "address"
                },
                {
                    "internalType": "address",
                    "name": "delegatee",
                    "type": "address"
                }
            ],
            "name": "delegateAll",
            "outputs": [],
            "stateMutability": "nonpayable",
            "type": "function"
        },
        {
            "inputs": [
                {
                    "internalType": "uint256[]",
                    "name": "planIds",
                    "type": "uint256[]"
                },
                {
                    "internalType": "address[]",
                    "name": "delegatees",
                    "type": "address[]"
                }
            ],
            "name": "delegatePlans",
            "outputs": [],
            "stateMutability": "nonpayable",
            "type": "function"
        },
        {
            "inputs": [
                {
                    "internalType": "address",
                    "name": "delegatee",
                    "type": "address"
                },
                {
                    "internalType": "address",
                    "name": "token",
                    "type": "address"
                }
            ],
            "name": "delegatedBalances",
            "outputs": [
                {
                    "internalType": "euint64",
                    "name": "delegatedBalance",
                    "type": "uint256"
                }
            ],
            "stateMutability": "nonpayable",
            "type": "function"
        },
        {
            "inputs": [
                {
                    "internalType": "uint256",
                    "name": "tokenId",
                    "type": "uint256"
                }
            ],
            "name": "delegatedTo",
            "outputs": [
                {
                    "internalType": "address",
                    "name": "",
                    "type": "address"
                }
            ],
            "stateMutability": "view",
            "type": "function"
        },
        {
            "inputs": [],
            "name": "deleteAdmin",
            "outputs": [],
            "stateMutability": "nonpayable",
            "type": "function"
        },
        {
            "inputs": [
                {
                    "internalType": "uint256",
                    "name": "tokenId",
                    "type": "uint256"
                }
            ],
            "name": "getApproved",
            "outputs": [
                {
                    "internalType": "address",
                    "name": "",
                    "type": "address"
                }
            ],
            "stateMutability": "view",
            "type": "function"
        },
        {
            "inputs": [
                {
                    "internalType": "uint256",
                    "name": "planId",
                    "type": "uint256"
                }
            ],
            "name": "getApprovedDelegator",
            "outputs": [
                {
                    "internalType": "address",
                    "name": "",
                    "type": "address"
                }
            ],
            "stateMutability": "view",
            "type": "function"
        },
        {
            "inputs": [
                {
                    "internalType": "address",
                    "name": "owner",
                    "type": "address"
                },
                {
                    "internalType": "address",
                    "name": "operator",
                    "type": "address"
                }
            ],
            "name": "isApprovedForAll",
            "outputs": [
                {
                    "internalType": "bool",
                    "name": "",
                    "type": "bool"
                }
            ],
            "stateMutability": "view",
            "type": "function"
        },
        {
            "inputs": [
                {
                    "internalType": "address",
                    "name": "owner",
                    "type": "address"
                },
                {
                    "internalType": "address",
                    "name": "operator",
                    "type": "address"
                }
            ],
            "name": "isApprovedForAllDelegation",
            "outputs": [
                {
                    "internalType": "bool",
                    "name": "",
                    "type": "bool"
                }
            ],
            "stateMutability": "view",
            "type": "function"
        },
        {
            "inputs": [
                {
                    "internalType": "address",
                    "name": "holder",
                    "type": "address"
                },
                {
                    "internalType": "address",
                    "name": "token",
                    "type": "address"
                }
            ],
            "name": "lockedBalances",
            "outputs": [
                {
                    "internalType": "euint64",
                    "name": "lockedBalance",
                    "type": "uint256"
                }
            ],
            "stateMutability": "nonpayable",
            "type": "function"
        },
        {
            "inputs": [],
            "name": "name",
            "outputs": [
                {
                    "internalType": "string",
                    "name": "",
                    "type": "string"
                }
            ],
            "stateMutability": "view",
            "type": "function"
        },
        {
            "inputs": [
                {
                    "internalType": "uint256",
                    "name": "tokenId",
                    "type": "uint256"
                }
            ],
            "name": "ownerOf",
            "outputs": [
                {
                    "internalType": "address",
                    "name": "",
                    "type": "address"
                }
            ],
            "stateMutability": "view",
            "type": "function"
        },
        {
            "inputs": [
                {
                    "internalType": "uint256",
                    "name": "planId",
                    "type": "uint256"
                },
                {
                    "internalType": "uint256",
                    "name": "timeStamp",
                    "type": "uint256"
                },
                {
                    "internalType": "uint256",
                    "name": "redemptionTime",
                    "type": "uint256"
                }
            ],
            "name": "planBalanceOf",
            "outputs": [
                {
                    "internalType": "euint64",
                    "name": "balance",
                    "type": "uint256"
                },
                {
                    "internalType": "euint64",
                    "name": "remainder",
                    "type": "uint256"
                },
                {
                    "internalType": "euint64",
                    "name": "latestUnlock",
                    "type": "uint256"
                }
            ],
            "stateMutability": "nonpayable",
            "type": "function"
        },
        {
            "inputs": [
                {
                    "internalType": "uint256",
                    "name": "planId",
                    "type": "uint256"
                }
            ],
            "name": "planEnd",
            "outputs": [
                {
                    "internalType": "euint64",
                    "name": "end",
                    "type": "uint256"
                }
            ],
            "stateMutability": "nonpayable",
            "type": "function"
        },
        {
            "inputs": [
                {
                    "internalType": "uint256",
                    "name": "",
                    "type": "uint256"
                }
            ],
            "name": "plans",
            "outputs": [
                {
                    "internalType": "address",
                    "name": "token",
                    "type": "address"
                },
                {
                    "internalType": "euint64",
                    "name": "amount",
                    "type": "uint256"
                },
                {
                    "internalType": "euint64",
                    "name": "start",
                    "type": "uint256"
                },
                {
                    "internalType": "euint64",
                    "name": "cliff",
                    "type": "uint256"
                },
                {
                    "internalType": "uint256",
                    "name": "rate",
                    "type": "uint256"
                },
                {
                    "internalType": "uint256",
                    "name": "period",
                    "type": "uint256"
                }
            ],
            "stateMutability": "view",
            "type": "function"
        },
        {
            "inputs": [],
            "name": "redeemAllPlans",
            "outputs": [],
            "stateMutability": "nonpayable",
            "type": "function"
        },
        {
            "inputs": [
                {
                    "internalType": "address",
                    "name": "from",
                    "type": "address"
                },
                {
                    "internalType": "address",
                    "name": "to",
                    "type": "address"
                },
                {
                    "internalType": "uint256",
                    "name": "tokenId",
                    "type": "uint256"
                }
            ],
            "name": "safeTransferFrom",
            "outputs": [],
            "stateMutability": "nonpayable",
            "type": "function"
        },
        {
            "inputs": [
                {
                    "internalType": "address",
                    "name": "from",
                    "type": "address"
                },
                {
                    "internalType": "address",
                    "name": "to",
                    "type": "address"
                },
                {
                    "internalType": "uint256",
                    "name": "tokenId",
                    "type": "uint256"
                },
                {
                    "internalType": "bytes",
                    "name": "data",
                    "type": "bytes"
                }
            ],
            "name": "safeTransferFrom",
            "outputs": [],
            "stateMutability": "nonpayable",
            "type": "function"
        },
        {
            "inputs": [
                {
                    "internalType": "address",
                    "name": "operator",
                    "type": "address"
                },
                {
                    "internalType": "bool",
                    "name": "approved",
                    "type": "bool"
                }
            ],
            "name": "setApprovalForAll",
            "outputs": [],
            "stateMutability": "nonpayable",
            "type": "function"
        },
        {
            "inputs": [
                {
                    "internalType": "address",
                    "name": "operator",
                    "type": "address"
                },
                {
                    "internalType": "bool",
                    "name": "approved",
                    "type": "bool"
                }
            ],
            "name": "setApprovalForAllDelegation",
            "outputs": [],
            "stateMutability": "nonpayable",
            "type": "function"
        },
        {
            "inputs": [
                {
                    "internalType": "address",
                    "name": "operator",
                    "type": "address"
                },
                {
                    "internalType": "bool",
                    "name": "approved",
                    "type": "bool"
                }
            ],
            "name": "setApprovalForOperator",
            "outputs": [],
            "stateMutability": "nonpayable",
            "type": "function"
        },
        {
            "inputs": [
                {
                    "internalType": "bytes4",
                    "name": "interfaceId",
                    "type": "bytes4"
                }
            ],
            "name": "supportsInterface",
            "outputs": [
                {
                    "internalType": "bool",
                    "name": "",
                    "type": "bool"
                }
            ],
            "stateMutability": "view",
            "type": "function"
        },
        {
            "inputs": [],
            "name": "symbol",
            "outputs": [
                {
                    "internalType": "string",
                    "name": "",
                    "type": "string"
                }
            ],
            "stateMutability": "view",
            "type": "function"
        },
        {
            "inputs": [
                {
                    "internalType": "uint256",
                    "name": "index",
                    "type": "uint256"
                }
            ],
            "name": "tokenByIndex",
            "outputs": [
                {
                    "internalType": "uint256",
                    "name": "",
                    "type": "uint256"
                }
            ],
            "stateMutability": "view",
            "type": "function"
        },
        {
            "inputs": [
                {
                    "internalType": "address",
                    "name": "delegate",
                    "type": "address"
                },
                {
                    "internalType": "uint256",
                    "name": "index",
                    "type": "uint256"
                }
            ],
            "name": "tokenOfDelegateByIndex",
            "outputs": [
                {
                    "internalType": "uint256",
                    "name": "",
                    "type": "uint256"
                }
            ],
            "stateMutability": "view",
            "type": "function"
        },
        {
            "inputs": [
                {
                    "internalType": "address",
                    "name": "owner",
                    "type": "address"
                },
                {
                    "internalType": "uint256",
                    "name": "index",
                    "type": "uint256"
                }
            ],
            "name": "tokenOfOwnerByIndex",
            "outputs": [
                {
                    "internalType": "uint256",
                    "name": "",
                    "type": "uint256"
                }
            ],
            "stateMutability": "view",
            "type": "function"
        },
        {
            "inputs": [
                {
                    "internalType": "uint256",
                    "name": "tokenId",
                    "type": "uint256"
                }
            ],
            "name": "tokenURI",
            "outputs": [
                {
                    "internalType": "string",
                    "name": "",
                    "type": "string"
                }
            ],
            "stateMutability": "view",
            "type": "function"
        },
        {
            "inputs": [],
            "name": "totalSupply",
            "outputs": [
                {
                    "internalType": "uint256",
                    "name": "",
                    "type": "uint256"
                }
            ],
            "stateMutability": "view",
            "type": "function"
        },
        {
            "inputs": [
                {
                    "internalType": "address",
                    "name": "from",
                    "type": "address"
                },
                {
                    "internalType": "address",
                    "name": "to",
                    "type": "address"
                },
                {
                    "internalType": "uint256",
                    "name": "tokenId",
                    "type": "uint256"
                }
            ],
            "name": "transferFrom",
            "outputs": [],
            "stateMutability": "nonpayable",
            "type": "function"
        },
        {
            "inputs": [
                {
                    "internalType": "string",
                    "name": "_uri",
                    "type": "string"
                }
            ],
            "name": "updateBaseURI",
            "outputs": [],
            "stateMutability": "nonpayable",
            "type": "function"
        }
    ],
    "bytecode": "0x60806040523462000031576200001f6200001862000170565b9062000208565b6040516142dc6200049a82396142dc90f35b5f80fd5b634e487b7160e01b5f52604160045260245ffd5b90601f01601f191681019081106001600160401b038211176200006b57604052565b62000035565b90620000886200008060405190565b928362000049565b565b6001600160401b0381116200006b57602090601f01601f19160190565b5f5b838110620000b95750505f910152565b8181015183820152602001620000a9565b90929192620000e3620000dd826200008a565b62000071565b9381855260208501908284011162000031576200008892620000a7565b9080601f83011215620000315781516200011d92602001620000ca565b90565b919091604081840312620000315780516001600160401b0381116200003157836200014d91830162000100565b60208201519093906001600160401b03811162000031576200011d920162000100565b620001936200477680380380620001878162000071565b92833981019062000120565b9091565b90610100600160a81b039060081b5b9181191691161790565b6200011d90620001c6906001600160a01b031682565b6001600160a01b031690565b6200011d90620001b0565b6200011d90620001d2565b90620001fc6200011d6200020492620001dd565b825462000197565b9055565b90620002149162000221565b62000088336013620001e8565b9062000088916200026f565b6200011d6200011d6200011d9290565b6200011d60016200022d565b905f1990620001a6565b90620002676200011d62000204926200022d565b825462000249565b906200027b9162000291565b62000088620002896200023d565b601162000253565b620000889182918291829182919062000480565b634e487b7160e01b5f52602260045260245ffd5b9060016002830492168015620002dc575b6020831014620002d657565b620002a5565b91607f1691620002ca565b915f1960089290920291821b911b620001a6565b9190620003106200011d62000204936200022d565b908354620002e7565b62000088915f91620002fb565b81811062000332575050565b80620003415f60019362000319565b0162000326565b9190601f81116200035857505050565b6200036a62000088935f5260205f2090565b906020601f8401819004830193106200038e575b6020601f90910104019062000326565b90915081906200037e565b90620003a3815190565b906001600160401b0382116200006b57620003cb82620003c48554620002b9565b8562000348565b602090601f831160011462000408576200020492915f9183620003fc575b50505f19600883021c1916906002021790565b015190505f80620003e9565b601f198316916200041c855f5260205f2090565b925f5b8181106200045b5750916002939185600196941062000442575b50505002019055565b01515f196008601f8516021c191690555f808062000439565b919360206001819287870151815501950192016200041f565b90620000889162000399565b906200049162000088925f62000474565b60016200047456fe60806040526004361015610011575f80fd5b5f3560e01c806301ffc9a71461027057806306fdde031461026b578063081812fc1461026657806308bbb82414610261578063095ea7b31461025c57806314f864cd1461025757806316c099671461025257806318160ddd1461024d5780631f25ccb61461024857806323b872dd146102435780632f745c591461023e578063402d5a771461023957806342842e0e146102345780634c6839cc1461022f5780634f6ccce71461022a57806352e5b7e4146102255780636352211e146102205780636b8e3d731461021b5780636bb3c73f146102165780636c0360eb1461021157806370a082311461020c5780637b4e51f61461020757806388cccd8014610202578063931688cb146101fd57806395d89b41146101f8578063a22cb465146101f3578063a4141596146101ee578063a8973e2b146101e9578063b1620616146101e4578063b6f97787146101df578063b88d4fde146101da578063b9bdac2c146101d5578063c3ca5755146101d0578063c7711c4c146101cb578063c7d74fa7146101c6578063c87b56dd146101c1578063dc1fa568146101bc5763e985e9c50361028857610d99565b610d7d565b610d62565b610d37565b610cc8565b610cad565b610c95565b610c79565b610c0e565b610bda565b610adf565b610a4f565b610a36565b610a1b565b610a03565b610940565b610927565b6108d4565b6108b9565b610748565b61072c565b610711565b6106e9565b6106a8565b61068d565b610660565b610645565b610629565b610610565b6105c7565b610591565b610578565b610543565b61046d565b61042c565b6103b7565b61035c565b6102b6565b6001600160e01b031981165b0361028857565b5f80fd5b9050359061029982610275565b565b90602082820312610288576102af9161028c565b90565b9052565b34610288576102e46102d16102cc36600461029b565b610db5565b6040515b91829182901515815260200190565b0390f35b5f91031261028857565b5f5b8381106103035750505f910152565b81810151838201526020016102f4565b61033461033d60209361034793610328815190565b80835293849260200190565b958691016102f2565b601f01601f191690565b0190565b60208082526102af92910190610313565b346102885761036c3660046102e8565b6102e4610377610def565b6040515b9182918261034b565b80610281565b9050359061029982610384565b90602082820312610288576102af9161038a565b6001600160a01b031690565b34610288576102e46103d26103cd366004610397565b610df8565b6040515b918291826001600160a01b03909116815260200190565b6001600160a01b038116610281565b90503590610299826103ed565b9190604083820312610288576102af90610423818561038a565b936020016103fc565b346102885761044561043f366004610409565b90610e24565b604051005b9190604083820312610288576102af9061046481856103fc565b9360200161038a565b346102885761044561048036600461044a565b90610ef9565b909182601f83011215610288578135916001600160401b03831161028857602001926001830284011161028857565b91909161010081840312610288576104cd83826103fc565b926104db81602084016103fc565b926104e9826040850161038a565b926104f7836060830161038a565b92610505816080840161038a565b926105138260a0850161038a565b926105218360c0830161038a565b9260e08201356001600160401b0381116102885761053f9201610486565b9091565b34610288576102e46105686105593660046104b5565b979690969591959492946112d4565b6040519182918290815260200190565b346102885761044561058b36600461044a565b90611360565b34610288576105a13660046102e8565b6102e461056860085490565b9190604083820312610288576102af9061042381856103fc565b34610288576104456105da3660046105ad565b906113be565b9091606082840312610288576102af6105f984846103fc565b9361060781602086016103fc565b9360400161038a565b34610288576104456106233660046105e0565b916114a3565b34610288576102e461056861063f36600461044a565b9061152e565b34610288576102e46103d261065b366004610397565b61156b565b34610288576104456106733660046105e0565b916115ad565b90602082820312610288576102af916103fc565b34610288576102e46105686106a3366004610679565b611611565b34610288576102e46105686106be366004610397565b6116f1565b6102af6102af6102af9290565b6102b2906106c3565b60208101929161029991906106d0565b34610288576102e46107056106ff3660046105ad565b906117c1565b604051918291826106d9565b34610288576102e46103d2610727366004610397565b611893565b34610288576102e46107056107423660046105ad565b906118b9565b34610288576102e46103d261075e366004610397565b611946565b634e487b7160e01b5f525f60045260245ffd5b634e487b7160e01b5f52602260045260245ffd5b90600160028304921680156107aa575b60208310146107a557565b610776565b91607f169161079a565b80545f9392916107d06107c68361078a565b8085529360200190565b916001811690811561081f57506001146107e957505050565b6107fa91929394505f5260205f2090565b915f925b81841061080b5750500190565b8054848401526020909301926001016107fe565b92949550505060ff1916825215156020020190565b906102af916107b4565b634e487b7160e01b5f52604160045260245ffd5b90601f01601f191681019081106001600160401b0382111761087357604052565b61083e565b906102996108929261088960405190565b93848092610834565b0383610852565b905f106108a9576102af90610878565b610763565b6102af5f6012610899565b34610288576108c93660046102e8565b6102e46103776108ae565b34610288576102e46105686108ea366004610679565b6119ba565b801515610281565b90503590610299826108ef565b9190604083820312610288576102af9061091e81856103fc565b936020016108f7565b346102885761044561093a366004610904565b906119ea565b3461028857610445610953366004610904565b90611a00565b9061029961096660405190565b9283610852565b6001600160401b03811161087357602090601f01601f19160190565b90825f939282370152565b909291926109a96109a48261096d565b610959565b938185526020850190828401116102885761029992610989565b9080601f83011215610288578160206102af93359101610994565b906020828203126102885781356001600160401b038111610288576102af92016109c3565b3461028857610445610a163660046109de565b611bec565b3461028857610a2b3660046102e8565b6102e4610377611c50565b3461028857610445610a49366004610904565b90611c5a565b3461028857610445610a6236600461044a565b90611c65565b909182601f83011215610288578135916001600160401b03831161028857602001926020830284011161028857565b90916040828403126102885781356001600160401b0381116102885783610abf918401610a68565b92909360208201356001600160401b0381116102885761053f9201610a68565b3461028857610445610af2366004610a97565b92919091611dbb565b90610b05906106c3565b5f5260205260405f2090565b6102af9081565b6102af9054610b11565b610b2d906010610afb565b90610b3f82546001600160a01b031690565b91610b4c60018201610b18565b91610b5960028301610b18565b91610b6660038201610b18565b916102af6005610b7860048501610b18565b9301610b18565b9194610bcf610bd692989795610bc560a096610bbb6102999a610bb160c08a019e5f8b01906001600160a01b03169052565b60208901906106d0565b60408701906106d0565b60608501906106d0565b6080830152565b0152565b34610288576102e4610bf5610bf0366004610397565b610b22565b92610c0596949692919260405190565b96879687610b7f565b34610288576102e46102d1610c243660046105ad565b90611ddc565b9060808282031261028857610c3f81836103fc565b92610c4d82602085016103fc565b92610c5b836040830161038a565b9260608201356001600160401b038111610288576102af92016109c3565b3461028857610445610c8c366004610c2a565b92919091611e00565b3461028857610ca53660046102e8565b610445611ee2565b34610288576102e4610705610cc3366004610397565b611eea565b3461028857610cd83660046102e8565b610445611fa6565b9091606082840312610288576102af610cf9848461038a565b93610607816020860161038a565b604090610d306102999496959396610d2660608401985f8501906106d0565b60208301906106d0565b01906106d0565b34610288576102e4610d53610d4d366004610ce0565b91612007565b60405191939193849384610d07565b34610288576102e4610377610d78366004610397565b6120ef565b34610288576102e4610568610d9336600461044a565b90612199565b34610288576102e46102d1610daf3660046105ad565b906121d1565b80610dd063780e9d6360e01b5b916001600160e01b03191690565b14908115610ddc575090565b6102af91506121eb565b6102af90610878565b6102af5f610de6565b610e176102af91610e065f90565b50610e1081612231565b6004610afb565b546001600160a01b031690565b6102999161227b565b15610e3457565b60405162461bcd60e51b815260206004820152602160248201527f4552433732313a20617070726f76616c20746f2063757272656e74206f776e656044820152603960f91b6064820152608490fd5b0390fd5b15610e8e57565b60405162461bcd60e51b815260206004820152603d60248201527f4552433732313a20617070726f76652063616c6c6572206973206e6f7420746f60448201527f6b656e206f776e6572206f7220617070726f76656420666f7220616c6c0000006064820152608490fd5b9061029991610f52610f0a83611893565b610f3083610f296001600160a01b0384165b916001600160a01b031690565b1415610e2d565b33610f436001600160a01b038316610f1c565b14908115610f57575b50610e87565b612297565b610f62915033610daf565b5f610f4c565b90610f82999897969594939291610f7d612357565b6110fc565b90610299612395565b6102af913691610994565b6102af906103ab906001600160a01b031682565b6102af90610f96565b6102af90610faa565b90505190610299826108ef565b90602082820312610288576102af91610fbc565b6001600160a01b039091168152606081019392610299929091604091610d30905b6001600160a01b03166020830152565b6040513d5f823e3d90fd5b6102af60c0610959565b906001600160a01b03905b9181191691161790565b906110486102af61104f92610fb3565b8254611023565b9055565b905f199061102e565b9061106c6102af61104f926106c3565b8254611053565b61029991906110af9060a09060059061109d8161109787516001600160a01b031690565b90611038565b6110b5600182016110af602088015190565b9061105c565b6110c7600282016110af604088015190565b6110d9600382016110af606088015190565b6110eb600482016110af608088015190565b0192015190565b9061029991611073565b611139929a9961113261112761116196611121949c959b9a9c50611121868590610f8b565b906123b7565b966111218386610f8b565b9692610f8b565b9161114785888386886123e1565b90509061115b6111565f6106c3565b6124c8565b916124e5565b9161116c6014612516565b6111766014612534565b976111818185612547565b61119261118d82610fb3565b610fb3565b9460206323b872dd9633906111c55f6111aa30610fb3565b9a6111d08b6111b860405190565b9d8e978896879560e01b90565b855260048501610fdd565b03925af19182156112cf576102999861122961123e966112226112309461124e9b611237986112a3575b5099979193959761121b61120c611019565b6001600160a01b03909c168c52565b60208b0152565b6040890152565b6060870152565b6080850152565b60a0830152565b611249866010610afb565b6110f2565b6112766112676002611261876010610afb565b01610b18565b61127030610fb3565b90612547565b6112896112676003611261876010610afb565b61129c6112676001611261876010610afb565b8390612559565b6112c39060203d81116112c8575b6112bb8183610852565b810190610fc9565b6111fa565b503d6112b1565b61100e565b6102af9897969594939291905f610f68565b156112ed57565b60405162461bcd60e51b815260206004820152600e60248201526d10b7bbb732b927b832b930ba37b960911b6044820152606490fd5b1561132a57565b60405162461bcd60e51b815260206004820152600e60248201526d085cd95b1988185c1c1c9bdd985b60921b6044820152606490fd5b906102999161139361137183611893565b336113846001600160a01b038316610f1c565b149081156113ac575b506112e6565b6113a7816113a033610f1c565b1415611323565b612595565b6113b891503390611ddc565b5f61138d565b906113c8336119ba565b915f5b83816113d6565b9190565b101561143b57611426906113ea813361152e565b6114075f6113f9836010610afb565b01546001600160a01b031690565b6114196001600160a01b038616610f1c565b1461142b575b5060010190565b6113cb565b611435908561227b565b5f61141f565b50505050565b1561144857565b60405162461bcd60e51b815260206004820152602d60248201527f4552433732313a2063616c6c6572206973206e6f7420746f6b656e206f776e6560448201526c1c881bdc88185c1c1c9bdd9959609a1b6064820152608490fd5b61029992906114bc6114b7335b84906125f4565b611441565b91909161270d565b156114cb57565b60405162461bcd60e51b815260206004820152602b60248201527f455243373231456e756d657261626c653a206f776e657220696e646578206f7560448201526a74206f6620626f756e647360a81b6064820152608490fd5b90610b0590610fb3565b6102af91611561611566926115405f90565b5061155a836115546113d26102af856119ba565b106114c4565b6006611524565b610afb565b610b18565b610e176102af916115795f90565b5061158381612231565b600a610afb565b906115976109a48361096d565b918252565b6102af5f61158a565b6102af61159c565b9161029992916115bb6115a5565b92611e00565b6103ab6102af6102af9290565b6102af906115c1565b156115de57565b60405162461bcd60e51b815260206004820152600b60248201526a216164647265737328302960a81b6044820152606490fd5b6115666102af9161161f5f90565b5061163a81611633610f1c6103ab5f6115ce565b14156115d7565b600d611524565b1561164857565b60405162461bcd60e51b815260206004820152602c60248201527f455243373231456e756d657261626c653a20676c6f62616c20696e646578206f60448201526b7574206f6620626f756e647360a01b6064820152608490fd5b634e487b7160e01b5f52603260045260245ffd5b80548210156116d6576116ce6001915f5260205f2090565b910201905f90565b6116a2565b6102af916008021c81565b906102af91546116db565b6117206102af916116ff5f90565b50611719816117136113d26102af60085490565b10611641565b60086116b6565b906116e6565b906102996117b16005611737611019565b9461175961174c82546001600160a01b031690565b6001600160a01b03168752565b61176f61176860018301610b18565b6020880152565b61178561177e60028301610b18565b6040880152565b61179b61179460038301610b18565b6060880152565b6112616117aa60048301610b18565b6080880152565b60a0840152565b6102af90611726565b91905f926117ce816119ba565b925f5b84811015611840576117f56117f06117e9838661152e565b6010610afb565b6117b8565b8461180d610f1c6103ab84516001600160a01b031690565b14611821575b506001016117d1565b6117d1565b61181c9196611834602061183993015190565b612812565b9590611813565b5092505050565b1561184e57565b60405162461bcd60e51b815260206004820152601860248201527f4552433732313a20696e76616c696420746f6b656e20494400000000000000006044820152606490fd5b61189f905f5b50612882565b6102af816118b2610f1c6103ab5f6115ce565b1415611847565b91905f906118c684611611565b925f5b8481101561193e576118e16117f06117e98389612199565b836118f9610f1c6103ab84516001600160a01b031690565b1461190d575b506001016118c9565b6118c9565b6119089194611834602061192093015190565b9361192b3386612547565b6119388561127030610fb3565b906118ff565b509250509150565b610e176102af916119545f90565b50600c610afb565b1561196357565b60405162461bcd60e51b815260206004820152602960248201527f4552433732313a2061646472657373207a65726f206973206e6f7420612076616044820152683634b21037bbb732b960b91b6064820152608490fd5b6115666102af916119c85f90565b506119e3816119dc610f1c6103ab5f6115ce565b141561195c565b6003611524565b610299916119f98183336128fd565b90336129ba565b6102999190336128fd565b6102af9060081c6103ab565b6102af9054611a0b565b15611a2857565b60405162461bcd60e51b815260206004820152600660248201526510a0a226a4a760d11b6044820152606490fd5b915f1960089290920291821b911b61102e565b9190611a7a6102af61104f936106c3565b908354611a56565b610299915f91611a69565b818110611a98575050565b80611aa55f600193611a82565b01611a8d565b9190601f8111611aba57505050565b611aca610299935f5260205f2090565b906020601f840181900483019310611aec575b6020601f909101040190611a8d565b9091508190611add565b90611aff815190565b906001600160401b03821161087357611b2282611b1c855461078a565b85611aab565b602090601f8311600114611b5b5761104f92915f9183611b50575b50505f19600883021c1916906002021790565b015190505f80611b3d565b601f19831691611b6e855f5260205f2090565b925f5b818110611baa57509160029391856001969410611b92575b50505002019055565b01515f196008601f8516021c191690555f8080611b89565b91936020600181928787015181550195019201611b71565b9061029991611af6565b9060ff9061102e565b90611be56102af61104f92151590565b8254611bcc565b611c0633611c00610f1c6103ab6013611a17565b14611a21565b611c11816012611bc2565b611c1d60016013611bd5565b611c4b7fde63cc2d19581e57e158d078c2df83f9ab70addd6257f7f12bfecb21c06c91289161037b60405190565b0390a1565b6102af6001610de6565b6102999190336129ba565b9061029991611c97611c7683611893565b33611c896001600160a01b038316610f1c565b14908115611cae57506112e6565b611ca4816113a033610f1c565b610f528282612595565b9050611cba3382611ddc565b9081611cc8575b505f61138d565b611cd4915033906121d1565b5f611cc1565b90611cf7939291611ce9612357565b93929091611d638284611d5d565b610299612395565b15611d0657565b60405162461bcd60e51b815260206004820152600b60248201526a30b93930bc9032b93937b960a91b6044820152606490fd5b91908110156116d6576020020190565b356102af816103ed565b356102af81610384565b14611cff565b5f5b80611d6f856113d2565b1015611db357611dae90611da8611d8f611d8a838787611d39565b611d49565b611da2611d9d84898c611d39565b611d53565b9061227b565b60010190565b611d65565b505050509050565b90610299939291611cda565b6102af905b60ff1690565b6102af9054611dc7565b6102af91611df6611dfb92611dee5f90565b50600b611524565b611524565b611dd2565b61029993919290611e136114b7336114b0565b92909192612a9c565b611e24612357565b611cf7611e94565b6001600160401b0381116108735760208091020190565b906115976109a483611e2c565b369037565b90610299611e6283611e43565b92602080611e708693611e2c565b9201910390611e50565b90611e83825190565b8110156116d6576020809102010190565b611e9d336119ba565b611ea681611e55565b915f5b82811015611ed457611ecf90611da8611ec2823361152e565b611ecc8388611e7a565b52565b611ea9565b509161029991504290612abf565b610299611e1c565b611f036117f06102af92611efb5f90565b506010610afb565b604081015190611f14602082015190565b611f2a60a0611f24608085015190565b93015190565b92612b5d565b15611f3757565b60405162461bcd60e51b815280610e83600482016020808252600490820152630854d15560e21b604082015260600190565b916001600160a01b0360089290920291821b911b61102e565b9190611f936102af61104f93610fb3565b908354611f69565b610299915f91611f82565b611fba33611c00610f1c6103ab6013611a17565b611fcc611fc76013611dd2565b611f30565b611fd860016013611f9b565b33611c4b7fa775782c93424d570e142a52abffaedcebb0e9cd73cca502455acb0587efb6b7916103d660405190565b61209092909161201d6002611261856010610afb565b61202d6003611261866010610afb565b9361203e6001611261836010610afb565b61205c6005611261612054600482876010610afb565b946010610afb565b9261206a8161127030610fb3565b6120778761127030610fb3565b6120848261127030610fb3565b95909192939495612bd9565b9091926120a08461127030610fb3565b6120ad8361127030610fb3565b6102998261127030610fb3565b6103476120d2926020926120cc815190565b94859290565b938491016102f2565b6120e9906102af93926120ba565b906120ba565b6120f881612231565b612100612cb3565b90612109825190565b6121156113d25f6106c3565b1115612153576102af61212b6102af9392612cfb565b9161214461213860405190565b938492602084016120db565b60208201810382520382610852565b50506102af6115a5565b1561216457565b60405162461bcd60e51b815260206004820152600d60248201526c6f7574206f6620626f756e647360981b6044820152606490fd5b6102af91611561611566926121ab5f90565b506121ca836121c46113d26102af61156686600d611524565b1061215d565b600e611524565b6102af91611df6611dfb926121e35f90565b506005611524565b806121fc6380ac58cd60e01b610dc2565b148015612219575b90811561220f575090565b6102af9150612d72565b508061222b635b5e139f60e01b610dc2565b14612204565b61223d61029991612d82565b611847565b1561224957565b60405162461bcd60e51b815260206004820152600a60248201526910b232b632b3b0ba37b960b11b6044820152606490fd5b610299919061229261228d8333612da0565b612242565b612df6565b906122ac826122a7836004610afb565b611038565b6122b581611893565b916122f26122ec6122e67f8c5be1e5ebec7d5bd14f71427d1e84f3dd0314c0f7b2291e5b200ac8c7c3b92595610fb3565b92610fb3565b926106c3565b926122fc60405190565b5f90a4565b6102af60026106c3565b1561231257565b60405162461bcd60e51b815260206004820152601f60248201527f5265656e7472616e637947756172643a207265656e7472616e742063616c6c006044820152606490fd5b6123796123646011610b18565b6123726113d26102af612301565b141561230b565b610299612384612301565b601161105c565b6102af60016106c3565b61029961238461238b565b611dcc6102af6102af9290565b6102af60056123a0565b6102af916123cd6123dc926123c95f90565b5090565b906123d66123ad565b91612eaf565b6106c3565b94939061245c61246c61249b94612482946124ba976123fd5f90565b50612462612417846124116111565f6106c3565b90612fc8565b61245c612432612426856124c8565b6124116111565f6106c3565b91612456612449612442876124c8565b8990613034565b93612456612426896124c8565b926130a0565b906130a0565b9a92909192612b5d565b9661247a8861127030610fb3565b918790613034565b61248e6111565f6106c3565b61115b61115660016106c3565b6124a88161127030610fb3565b6124b46111565f6106c3565b906130bb565b906102998261127030610fb3565b6123dc6102af916124d65f90565b506124df6123ad565b90613148565b906102af9261251061250a6125046123dc956124fe5f90565b506106c3565b936106c3565b916106c3565b916131d9565b610299906110af5f61252860016106c3565b92019161034783610b18565b5f6102af916125405f90565b5001610b18565b90612554610299926106c3565b613225565b610299916125656115a5565b91613263565b6001600160a01b039091168152604081019291610299916020905b01906001600160a01b03169052565b906125a5826122a783600a610afb565b6125ae81611893565b916125d97f5f05f4f4b46d943d34b887b4741055b5ab6decb7b4fd2670a98969d38a364080926106c3565b926125ef6125e660405190565b9283928361256b565b0390a2565b6125fd82611893565b816126106001600160a01b038316610f1c565b14908115612649575b5091821561262657505090565b612645919250612638610f1c91610df8565b926001600160a01b031690565b1490565b612655915082906121d1565b5f612619565b1561266257565b60405162461bcd60e51b815260206004820152602560248201527f4552433732313a207472616e736665722066726f6d20696e636f72726563742060448201526437bbb732b960d91b6064820152608490fd5b156126bc57565b60405162461bcd60e51b8152602060048201526024808201527f4552433732313a207472616e7366657220746f20746865207a65726f206164646044820152637265737360e01b6064820152608490fd5b91909161273461271c83611893565b61272e6001600160a01b038416610f1c565b1461265b565b61274e83612747610f1c6103ab5f6115ce565b14156126b5565b61276481838561275e60016106c3565b9261327e565b61277061271c83611893565b6127845f61277f846004610afb565b611f9b565b6127ad61279160016106c3565b6110af61279f846003611524565b916127a983610b18565b0390565b6127d26127ba60016106c3565b6110af6127c8866003611524565b9161034783610b18565b6127e1836122a7846002610afb565b916122f26122ec6122e67fddf252ad1be2c89b69c2b068fc378daa952ba7f163c4a11628f55a4df523b3ef95610fb3565b6102af916123dc9161282a612826826132d3565b1590565b612870575b61283b612826836132d3565b612853575b61250a61284c916106c3565b5f91613311565b905061284c61250a6128676111565f6106c3565b92915050612840565b5061287d6111565f6106c3565b61282f565b610e176102af916128905f90565b506002610afb565b1561289f57565b60405162461bcd60e51b815260206004820152600960248201526810b7b832b930ba37b960b91b6044820152606490fd5b6001600160a01b0390911681526060810193926102999290916040916128f590610ffe565b019015159052565b90919061291d816129166001600160a01b038616610f1c565b1415612898565b61293b8261293661292f84600b611524565b8690611524565b611bd5565b6040517f947bc3b5c76434e50335b9127e82fb1abb17b34d9380caf2a64cd8c6f43711849392611c4b91938493846128d0565b1561297557565b60405162461bcd60e51b815260206004820152601960248201527f4552433732313a20617070726f766520746f2063616c6c6572000000000000006044820152606490fd5b9091906129da816129d36001600160a01b038616610f1c565b141561296e565b6129ec8261293661292f846005611524565b919091612a2f612a25612a1f7f17307eab39ab6107e8899845ad3d59bd9653f200f220920489ca2b5937696c3193610fb3565b93610fb3565b936102d560405190565b0390a3565b15612a3b57565b6040515b62461bcd60e51b815260206004820152603260248201527f4552433732313a207472616e7366657220746f206e6f6e20455243373231526560448201527131b2b4bb32b91034b6b83632b6b2b73a32b960711b6064820152608490fd5b92612aba9261029994612ab18185849161270d565b929091926133e1565b612a34565b91905f5b80612ad26113d26102af875190565b1015612b3e57612b3990611da8612afb612af3612aef8489611e7a565b5190565b428691612007565b90612b098361127030610fb3565b612b168161127030610fb3565b612b238261127030610fb3565b612b30612aef868b611e7a565b929091926134ee565b612ac3565b50509050565b612b516102af6102af9290565b6001600160401b031690565b90612bb5612bc19493612baf61115b93612b745f90565b50612ba9612b8e6124a883612b8887612b44565b9061356e565b9693612ba3612b9c8a6124c8565b9391612b44565b906135ba565b90613600565b90612812565b9192612baf83916124c8565b90612bcf8261127030610fb3565b6102993383612547565b91969493612baf612c95612c7b612c63612c58612c4f612c48612c4261115b998f612c3d906124ba9f8e612c32612c2c612c3793612c145f90565b50612411612c2585612411846124c8565b98916124c8565b936124c8565b613034565b9261366c565b61366c565b9d6124c8565b8990613687565b612ba387612b44565b97612ba989916124c8565b8a9061115b8d612c756111565f6106c3565b926136f3565b99612c898b61127030610fb3565b899061115b8c82613687565b97612ca38961127030610fb3565b94612cae85936124c8565b613600565b6102af6012610de6565b90610299612cca8361158a565b92602080611e70869361096d565b634e487b7160e01b5f52601260045260245ffd5b8115612cf6570490565b612cd8565b612d11612d078261375f565b61034760016106c3565b90612d1b82612cbd565b9160200182015b612d55905f1901916f181899199a1a9b1b9c1cb0b131b232b360811b600a82061a8353612d4f600a6106c3565b90612cec565b80612d626113d25f6106c3565b14612d6d5790612d22565b505090565b6126456301ffc9a760e01b610dc2565b612d8c905f611899565b612d9b610f1c6103ab5f6115ce565b141590565b612da982611893565b81612dbc6001600160a01b038316610f1c565b14908115612de4575b50918215612dd257505090565b612645919250612638610f1c9161156b565b612df091508290611ddc565b5f612dc5565b9061029991612e0482613955565b613ab4565b612e1f612e196102af9260ff1690565b60f81b90565b6001600160f81b03191690565b9050519061029982610384565b90602082820312610288576102af91612e2c565b94939160609161029994612e7c612e8993612e6c60808b01945f8c0152565b6001600160a01b031660208a0152565b8782036040890152610313565b9401906001600160f81b0319169052565b90815260408101929161029991602090612586565b9091602091612efc5f612ecf61118d5f805160206142b083398151915281565b92612f07632e817ff09195612ee5339991612e09565b90612eef60405190565b998a988997889660e01b90565b865260048601612e4d565b03925af19081156112cf575f91612f9a575b5090612f3961118d732fb4341027eb1d2ad8b5d9708187df8633cafa9281565b638d9c9c92833392803b1561028857612f675f8094612f72612f5a60405190565b9788968795869460e01b90565b845260048401612e9a565b03925af180156112cf57612f835750565b610299905f612f928183610852565b8101906102e8565b612fbb915060203d8111612fc1575b612fb38183610852565b810190612e39565b5f612f19565b503d612fa9565b6102af916123dc91612fdc612826826132d3565b613022575b612fed612826836132d3565b613005575b61250a612ffe916106c3565b5f91613b5d565b9050612ffe61250a6130196111565f6106c3565b92915050612ff2565b5061302f6111565f6106c3565b612fe1565b6102af916123dc91613048612826826132d3565b61308e575b613059612826836132d3565b613071575b61250a61306a916106c3565b5f91613bb2565b905061306a61250a6130856111565f6106c3565b9291505061305e565b5061309b6111565f6106c3565b61304d565b6102af916130b561250a6123dc936124fe5f90565b90613c07565b6102af916123dc916130cf612826826132d3565b613115575b6130e0612826836132d3565b6130f8575b61250a6130f1916106c3565b5f91613c45565b90506130f161250a61310c6111565f6106c3565b929150506130e5565b506131226111565f6106c3565b6130d4565b908152604081019291610299916020905b01906001600160f81b0319169052565b9060209061316361118d5f805160206142b083398151915281565b6131835f61317663e71746b89694612e09565b9561318e612f5a60405190565b845260048401613127565b03925af19081156112cf575f916131a3575090565b6102af915060203d8111612fc157612fb38183610852565b908152606081019392610299929091604091610bd6905b6020830152565b6020919061321a5f6131f861118d5f805160206142b083398151915281565b9261318e63cb3b940791959761320d60405190565b9889978896879560e01b90565b8552600485016131bb565b61324361118d732fb4341027eb1d2ad8b5d9708187df8633cafa9281565b6365d0509c9190803b1561028857612f675f8094612f72612f5a60405190565b61029992612aba926132758184613d36565b612ab15f6115ce565b9290919061328e90828486613dbf565b9161329e610f1c6103ab5f6115ce565b146132c4575b6132b3610f1c6103ab5f6115ce565b146132bb5750565b61029990613955565b6132ce8282613ab4565b6132a4565b6132dd905f6124fe565b612d9b6113d25f6106c3565b612e1f612e196102af9290565b908152606081019392610299929091604091613138906131d2565b9160209190156133625761332560016132e9565b925b6133575f61334261118d5f805160206142b083398151915281565b9261318e63f953e42791959761320d60405190565b8552600485016132f6565b61336b5f6132e9565b92613327565b9050519061029982610275565b90602082820312610288576102af91613371565b6001600160a01b0391821681529116602082015260408101919091526080606082018190526102af92910190610313565b3d156133dc576133d23d61158a565b903d5f602084013e565b606090565b9093925f946133ef81613dd6565b156134af57906134245f61340861118d60209695610fb3565b9261342f63150b7a02916134193390565b9698612eef60405190565b865260048601613392565b03925af15f918161347f575b5061346c57506134496133c3565b80516134576113d25f6106c3565b0361346457604051612a3f565b805190602001fd5b909150612645630a85bd0160e11b610dc2565b6134a191925060203d81116134a8575b6134998183610852565b81019061337e565b905f61343b565b503d61348f565b5060019450505050565b156134c057565b60405162461bcd60e51b815260206004820152600660248201526510b7bbb732b960d11b6044820152606490fd5b6135479060026135396102999695949561351961350a85611893565b61351333610f1c565b146134b9565b61353f61352b5f6113f9876010610afb565b966001613539876010610afb565b0161105c565b926010610afb565b6135518183612547565b3390613e06565b6102af6102af6102af926001600160401b031690565b6102af916123dc91613582612826826132d3565b61359f575b613593613599916106c3565b91613558565b90613e64565b506135996135936135b26111565f6106c3565b915050613587565b6102af916123dc916135ce612826826132d3565b6135e5575b6135936135df916106c3565b90613ea3565b506135df6135936135f86111565f6106c3565b9150506135d3565b6102af916123dc91613614612826826132d3565b61365a575b613625612826836132d3565b61363d575b61250a613636916106c3565b5f91613ee2565b905061363661250a6136516111565f6106c3565b9291505061362a565b506136676111565f6106c3565b613619565b6102af9161368161250a6123dc936124fe5f90565b90613f37565b6102af916123dc9161369b612826826132d3565b6136e1575b6136ac612826836132d3565b6136c4575b61250a6136bd916106c3565b5f91613f75565b90506136bd61250a6136d86111565f6106c3565b929150506136b1565b506136ee6111565f6106c3565b6136a0565b6102af916123dc91613707612826826132d3565b61374d575b613718612826836132d3565b613730575b61250a613729916106c3565b5f91613fca565b905061372961250a6137446111565f6106c3565b9291505061371d565b5061375a6111565f6106c3565b61370c565b6137685f6106c3565b908061378c6113d272184f03e93ff9f4daa797ed6e38ed64bf6a1f0160401b6106c3565b10156138f8575b806137ae6113d26d04ee2d6d415b85acef81000000006106c3565b10156138c9575b806137c96113d2662386f26fc100006106c3565b10156138a1575b806137e16113d26305f5e1006106c3565b101561387c575b806137f76113d26127106106c3565b1015613859575b8061380c6113d260646106c3565b1015613837575b6138206113d2600a6106c3565b10156138295790565b6102af9061034760016106c3565b61384861385391612d4f60646106c3565b9161034760026106c3565b90613813565b61386b61387691612d4f6127106106c3565b9161034760046106c3565b906137fe565b61389061389b91612d4f6305f5e1006106c3565b9161034760086106c3565b906137e8565b6138b86138c391612d4f662386f26fc100006106c3565b9161034760106106c3565b906137d0565b6138e76138f291612d4f6d04ee2d6d415b85acef81000000006106c3565b9161034760206106c3565b906137b5565b61391e61392991612d4f72184f03e93ff9f4daa797ed6e38ed64bf6a1f0160401b6106c3565b9161034760406106c3565b90613793565b634e487b7160e01b5f52601160045260245ffd5b9190820391821161395057565b61392f565b613963610e1782600c610afb565b9061397782611633610f1c6103ab5f6115ce565b6139d55f6139c561399f61398f61156687600d611524565b61399960016106c3565b90613943565b6139ad61156686600f610afb565b818103613a5b575b506139ca836139c587600f610afb565b611a82565b61156186600e611524565b6139ff6139e260016106c3565b6110af6139f085600d611524565b916139fa83610b18565b613943565b613a16613a0b5f6115ce565b6122a783600c610afb565b90613a4a613a447f09f87139523b83583b15f476015dd9a27fae3a03f17202cdf77d063bef5d21c2936106c3565b91610fb3565b91613a5460405190565b8080612a2f565b613aa190613a94613a7a611566613a738b600e611524565b8690610afb565b91613a9983613a94613a8d8d600e611524565b8490610afb565b61105c565b91600f610afb565b5f6139b5565b9190820180921161395057565b90613ac882611633610f1c6103ab5f6115ce565b613af6613ad961156684600d611524565b613aeb83613a94613a8d87600e611524565b613a9483600f610afb565b613b05826122a783600c610afb565b613b2f613b1260016106c3565b6110af613b2085600d611524565b91613b2a83610b18565b613aa7565b90613a4a613a447fcd57880fa6fb6b4aedb77272d2cfa8d03186b5034f9b672ccfcd3cd6edfecc9b936106c3565b916020919015613ba357613b7160016132e9565b925b6133575f613b8e61118d5f805160206142b083398151915281565b9261318e633e63c50a91959761320d60405190565b613bac5f6132e9565b92613b73565b916020919015613bf857613bc660016132e9565b925b6133575f613be361118d5f805160206142b083398151915281565b9261318e63694daf7291959761320d60405190565b613c015f6132e9565b92613bc8565b90602090613c145f6132e9565b926133575f613c3061118d5f805160206142b083398151915281565b9261318e63666a358891959761320d60405190565b916020919015613c8b57613c5960016132e9565b925b6133575f613c7661118d5f805160206142b083398151915281565b9261318e636be3175891959761320d60405190565b613c945f6132e9565b92613c5b565b15613ca157565b60405162461bcd60e51b815280610e83600482016020808252818101527f4552433732313a206d696e7420746f20746865207a65726f2061646472657373604082015260600190565b15613cf157565b60405162461bcd60e51b815260206004820152601c60248201527f4552433732313a20746f6b656e20616c7265616479206d696e746564000000006044820152606490fd5b90613d5182613d4a610f1c6103ab5f6115ce565b1415613c9a565b613d65613d6061282683612d82565b613cea565b613d7d613d715f6115ce565b828461275e60016106c3565b613d8c613d6061282683612d82565b613da7613d9960016106c3565b6110af6127c8856003611524565b613db6826122a7836002610afb565b6127e15f6115ce565b9161158361277f92610299955f959184919261401f565b3b613de36113d25f6106c3565b1190565b6001600160a01b03909116815260408101929161029991602090610d30565b91613e1661118d60209394610fb3565b613e2e5f63a9059cbb959395613e39612f5a60405190565b845260048401613de7565b03925af180156112cf57613e4a5750565b613e619060203d81116112c8576112bb8183610852565b50565b90602090613e7260016132e9565b926133575f613e8e61118d5f805160206142b083398151915281565b9261318e63e0c516ae91959761320d60405190565b90602090613eb160016132e9565b926133575f613ecd61118d5f805160206142b083398151915281565b9261318e6336cdd31b91959761320d60405190565b916020919015613f2857613ef660016132e9565b925b6133575f613f1361118d5f805160206142b083398151915281565b9261318e63816d57d391959761320d60405190565b613f315f6132e9565b92613ef8565b90602090613f445f6132e9565b926133575f613f6061118d5f805160206142b083398151915281565b9261318e63ec4057dc91959761320d60405190565b916020919015613fbb57613f8960016132e9565b925b6133575f613fa661118d5f805160206142b083398151915281565b9261318e638c14cc2191959761320d60405190565b613fc45f6132e9565b92613f8b565b91602091901561401057613fde60016132e9565b925b6133575f613ffb61118d5f805160206142b083398151915281565b9261318e63a87deac491959761320d60405190565b6140195f6132e9565b92613fe0565b91909261402f6113d260016106c3565b116140c0579080614045610f1c6103ab5f6115ce565b0361409957614053826141cf565b82614063610f1c6103ab5f6115ce565b0361407357506102999150614250565b614087610f1c84926001600160a01b031690565b03614090575050565b610299916141f1565b806140ac6001600160a01b038516610f1c565b14614053576140bb8282614123565b614053565b60405162461bcd60e51b815260206004820152603560248201527f455243373231456e756d657261626c653a20636f6e7365637574697665207472604482015274185b9cd9995c9cc81b9bdd081cdd5c1c1bdc9d1959605a1b6064820152608490fd5b6139c5610299926115615f9361155a856139c561414261398f856119ba565b95614151611566826007610afb565b878103614161575b506007610afb565b61419b90613a946141806115666141798a6006611524565b8c90610afb565b9161419383613a94613a8d8c6006611524565b916007610afb565b5f614159565b908154916801000000000000000083101561087357826141c9916001610299950181556116b6565b90611a69565b610299906141ea6141df60085490565b613a94836009610afb565b60086141a1565b90613a9461029992614193614205826119ba565b91613a94613a8d86926006611524565b634e487b7160e01b5f52603160045260245ffd5b8054801561424b575f19019061424861424283836116b6565b90611a82565b55565b614215565b5f6139c56142a59261429e61426761398f60085490565b613a9461428661172061427e611566876009610afb565b9360086116b6565b91614296836141c98360086116b6565b916009610afb565b6009610afb565b610299600861422956fe00000000000000000000000005fd9b5efe0a996095f42ed7e77c390810cf660ca164736f6c6343000818000a",
    "linkReferences": {},
    "deployedLinkReferences": {}
}